{"abi":[{"type":"constructor","inputs":[{"name":"init","type":"tuple","internalType":"struct IDiamondPackageCallBackFactoryInit.InitArgs","components":[{"name":"erc165Facet","type":"address","internalType":"contract IFacet"},{"name":"diamondLoupeFacet","type":"address","internalType":"contract IFacet"},{"name":"erc8109IntrospectionFacet","type":"address","internalType":"contract IFacet"},{"name":"postDeployHookFacet","type":"address","internalType":"contract IFacet"}]}],"stateMutability":"nonpayable"},{"type":"function","name":"DIAMOND_LOUPE_FACET","inputs":[],"outputs":[{"name":"","type":"address","internalType":"contract IFacet"}],"stateMutability":"view"},{"type":"function","name":"ERC165_FACET","inputs":[],"outputs":[{"name":"","type":"address","internalType":"contract IFacet"}],"stateMutability":"view"},{"type":"function","name":"ERC8109_INTROSPECTION_FACET","inputs":[],"outputs":[{"name":"","type":"address","internalType":"contract IFacet"}],"stateMutability":"view"},{"type":"function","name":"POST_DEPLOY_HOOK_FACET","inputs":[],"outputs":[{"name":"","type":"address","internalType":"contract IFacet"}],"stateMutability":"view"},{"type":"function","name":"PROXY_INIT_HASH","inputs":[],"outputs":[{"name":"","type":"bytes32","internalType":"bytes32"}],"stateMutability":"view"},{"type":"function","name":"calcAddress","inputs":[{"name":"pkg","type":"address","internalType":"contract IDiamondFactoryPackage"},{"name":"pkgArgs","type":"bytes","internalType":"bytes"}],"outputs":[{"name":"","type":"address","internalType":"address"}],"stateMutability":"view"},{"type":"function","name":"deploy","inputs":[{"name":"pkg","type":"address","internalType":"contract IDiamondFactoryPackage"},{"name":"pkgArgs","type":"bytes","internalType":"bytes"}],"outputs":[{"name":"proxy","type":"address","internalType":"address"}],"stateMutability":"nonpayable"},{"type":"function","name":"erc8109Funcs","inputs":[],"outputs":[{"name":"funcs","type":"bytes4[]","internalType":"bytes4[]"}],"stateMutability":"pure"},{"type":"function","name":"facetCuts","inputs":[],"outputs":[{"name":"facetCuts_","type":"tuple[]","internalType":"struct IDiamond.FacetCut[]","components":[{"name":"facetAddress","type":"address","internalType":"address"},{"name":"action","type":"uint8","internalType":"enum IDiamond.FacetCutAction"},{"name":"functionSelectors","type":"bytes4[]","internalType":"bytes4[]"}]}],"stateMutability":"view"},{"type":"function","name":"facetInterfaces","inputs":[],"outputs":[{"name":"interfaces","type":"bytes4[]","internalType":"bytes4[]"}],"stateMutability":"pure"},{"type":"function","name":"initAccount","inputs":[],"outputs":[{"name":"","type":"bool","internalType":"bool"}],"stateMutability":"nonpayable"},{"type":"function","name":"pkgArgsOfAccount","inputs":[{"name":"account","type":"address","internalType":"address"}],"outputs":[{"name":"pkgArgs","type":"bytes","internalType":"bytes"}],"stateMutability":"view"},{"type":"function","name":"pkgConfig","inputs":[],"outputs":[{"name":"pkg","type":"address","internalType":"contract IDiamondFactoryPackage"},{"name":"args","type":"bytes","internalType":"bytes"}],"stateMutability":"view"},{"type":"function","name":"pkgOfAccount","inputs":[{"name":"account","type":"address","internalType":"address"}],"outputs":[{"name":"pkg","type":"address","internalType":"contract IDiamondFactoryPackage"}],"stateMutability":"view"},{"type":"function","name":"postDeploy","inputs":[{"name":"","type":"address","internalType":"address"}],"outputs":[{"name":"","type":"bool","internalType":"bool"}],"stateMutability":"nonpayable"},{"type":"function","name":"postDeployFacetCuts","inputs":[],"outputs":[{"name":"facetCuts_","type":"tuple[]","internalType":"struct IDiamond.FacetCut[]","components":[{"name":"facetAddress","type":"address","internalType":"address"},{"name":"action","type":"uint8","internalType":"enum IDiamond.FacetCutAction"},{"name":"functionSelectors","type":"bytes4[]","internalType":"bytes4[]"}]}],"stateMutability":"view"},{"type":"event","name":"DiamondCut","inputs":[{"name":"_diamondCut","type":"tuple[]","indexed":false,"internalType":"struct IDiamond.FacetCut[]","components":[{"name":"facetAddress","type":"address","internalType":"address"},{"name":"action","type":"uint8","internalType":"enum IDiamond.FacetCutAction"},{"name":"functionSelectors","type":"bytes4[]","internalType":"bytes4[]"}]},{"name":"_init","type":"address","indexed":false,"internalType":"address"},{"name":"_calldata","type":"bytes","indexed":false,"internalType":"bytes"}],"anonymous":false},{"type":"event","name":"DiamondFunctionRemoved","inputs":[{"name":"_selector","type":"bytes4","indexed":true,"internalType":"bytes4"},{"name":"_oldFacet","type":"address","indexed":true,"internalType":"address"}],"anonymous":false},{"type":"error","name":"AddressEmptyCode","inputs":[{"name":"target","type":"address","internalType":"address"}]},{"type":"error","name":"DeploymentAddressMismatch","inputs":[{"name":"expected","type":"address","internalType":"address"},{"name":"actual","type":"address","internalType":"address"}]},{"type":"error","name":"FacetAlreadyPresent","inputs":[{"name":"facet","type":"address","internalType":"address"}]},{"type":"error","name":"FailedCall","inputs":[]},{"type":"error","name":"FunctionAlreadyPresent","inputs":[{"name":"functionSelector","type":"bytes4","internalType":"bytes4"}]},{"type":"error","name":"FunctionNotPresent","inputs":[{"name":"functionSelector","type":"bytes4","internalType":"bytes4"}]}],"bytecode":{"object":"0x6101206040523461014257604051601f61215238819003918201601f19168301916001600160401b0383118484101761012e578084926080946040528339810103126101425760405190608082016001600160401b0381118382101761012e5760405261006b81610146565b80835261007a60208301610146565b906020840191825260606100a28161009460408701610146565b956040880196875201610146565b94019384526001600160a01b039081166080529051811660a0529051811660c05290511660e0523061010052604051611ff7908161015b82396080518181816106970152610dad015260a05181818161019f0152610e2a015260c0518181816102a20152610eaf015260e05181818161014001528181610f0801526110290152610100518161035a0152f35b634e487b7160e01b5f52604160045260245ffd5b5f80fd5b51906001600160a01b03821682036101425756fe60806040526004361015610011575f80fd5b5f3560e01c80631c8b7630146107e75780632ea80826146107cc57806333a41d70146107165780633f58dd6d146106c6578063421d0c7b146106825780634ec1ce211461030f57806370068fcf146102d157806375edfda31461028d5780637cbde55d146102665780638072e14e146102115780638a648684146101ce578063978d23cf1461018a578063a4b3ad351461016f578063bce468171461012b578063d5a7944d146100f85763e97fac05146100c9575f80fd5b346100f45760206100e26100dc366108cb565b90611107565b6040516001600160a01b039091168152f35b5f80fd5b346100f4575f3660031901126100f457610127610113610ff6565b604051918291602083526020830190610a43565b0390f35b346100f4575f3660031901126100f4576040517f00000000000000000000000000000000000000000000000000000000000000006001600160a01b03168152602090f35b346100f4575f3660031901126100f457610127610113610d79565b346100f4575f3660031901126100f4576040517f00000000000000000000000000000000000000000000000000000000000000006001600160a01b03168152602090f35b346100f45760203660031901126100f4576004356001600160a01b038116908190036100f4575f525f602052602060018060a01b0360405f205416604051908152f35b346100f4575f3660031901126100f457335f525f60205260018060a01b0360405f205416335f52600160205261024960405f2061097f565b906101276040519283928352604060208401526040830190610a1f565b346100f4575f3660031901126100f457610127610281610d29565b6040519182918261086d565b346100f4575f3660031901126100f4576040517f00000000000000000000000000000000000000000000000000000000000000006001600160a01b03168152602090f35b346100f45760203660031901126100f4576004356001600160a01b038116036100f4576103046102ff610ff6565b61150b565b602060405160018152f35b346100f4575f3660031901126100f45761032a6102ff610d79565b61033a610335610b92565b611575565b60045f610345610d79565b604051634ec1ce2160e01b60208201528381527f00000000000000000000000000000000000000000000000000000000000000006001600160a01b0316915f516020611fa25f395f51905f52918391906103b0906103a4602482610824565b60405193849384610c02565b0390a160405163403970a760e11b815292839182905afa908115610621575f905f9261062c575b506040516365d375b360e01b8152916001600160a01b0391909116905f83600481855afa928315610621575f93610485575b506104776103a4846104295f516020611fa25f395f51905f52965161150b565b6104366020820151611575565b61046f61046960405160208082015261046481610456604082018a610a1f565b03601f198101835282610824565b610cee565b86611b51565b505192610cee565b0390a1602060405160018152f35b92503d805f853e6104968185610824565b8301926020818503126100f4578051906001600160401b0382116100f45701926040848203126100f457604080519081016001600160401b0381118282101761060d5760405284516001600160401b0381116100f457850182601f820112156100f45780519061050582610b16565b916105136040519384610824565b80835260208084019160051b830101918583116100f45760208101915b83831061057f57505050908252506020850151906001600160401b0382116100f457610572610477936103a4935f516020611fa25f395f51905f529801610c7f565b6020820152945050610409565b82516001600160401b0381116100f4578201906060828903601f1901126100f457604051906105ad82610809565b60208301516001600160a01b03811681036100f4578252604083015160038110156100f45760208301526060830151916001600160401b0383116100f4576105fd8a602080969581960101610c7f565b6040820152815201920191610530565b634e487b7160e01b5f52604160045260245ffd5b6040513d5f823e3d90fd5b9150503d805f833e61063e8183610824565b8101906040818303126100f4578051916001600160a01b03831683036100f45760208201516001600160401b0381116100f45761067b9201610c39565b90826103d7565b346100f4575f3660031901126100f4576040517f00000000000000000000000000000000000000000000000000000000000000006001600160a01b03168152602090f35b346100f45760203660031901126100f4576004356001600160a01b038116908190036100f4575f52600160205261012761070260405f2061097f565b604051918291602083526020830190610a1f565b346100f457610724366108cb565b6107536020610731610847565b9260405180938192636c15f2b760e11b83528460048401526024830190610a1f565b03816001600160a01b0387165afa908115610621575f91610797575b60206100e2848661045661078d876040519283918883019586610be7565b51902090306114bf565b9190506020823d6020116107c4575b816107b360209383610824565b810103126100f4579051602061076f565b3d91506107a6565b346100f4575f3660031901126100f457610127610281610b92565b346100f4575f3660031901126100f4576020610801610847565b604051908152f35b606081019081106001600160401b0382111761060d57604052565b601f909101601f19168101906001600160401b0382119082101761060d57604052565b6101cb60405161085a6020830182610824565b8181526020810191611dd7833951902090565b60206040818301928281528451809452019201905f5b8181106108905750505090565b82516001600160e01b031916845260209384019390920191600101610883565b6001600160401b03811161060d57601f01601f191660200190565b9060406003198301126100f4576004356001600160a01b03811681036100f457916024356001600160401b0381116100f457816023820112156100f457806004013590610917826108b0565b926109256040519485610824565b828452602483830101116100f457815f92602460209301838601378301015290565b90600182811c92168015610975575b602083101461096157565b634e487b7160e01b5f52602260045260245ffd5b91607f1691610956565b9060405191825f82549261099284610947565b80845293600181169081156109fd57506001146109b9575b506109b792500383610824565b565b90505f9291925260205f20905f915b8183106109e15750509060206109b7928201015f6109aa565b60209193508060019154838589010152019101909184926109c8565b9050602092506109b794915060ff191682840152151560051b8201015f6109aa565b805180835260209291819084018484015e5f828201840152601f01601f1916010190565b9080602083519182815201916020808360051b8301019401925f915b838310610a6e57505050505090565b9091929394601f198282030183528551606082019060018060a01b0381511683526020810151906003821015610b0257604060809160209384870152015193606060408201528451809452019201905f905b808210610adf5750505060208060019297019301930191939290610a5f565b82516001600160e01b031916845260209384019390920191600190910190610ac0565b634e487b7160e01b5f52602160045260245ffd5b6001600160401b03811161060d5760051b60200190565b805115610b3a5760200190565b634e487b7160e01b5f52603260045260245ffd5b805160011015610b3a5760400190565b805160021015610b3a5760600190565b805160031015610b3a5760800190565b8051821015610b3a5760209160051b010190565b60405190610ba1608083610824565b600382526060366020840137816301ffc9a760e01b610bbf82610b2d565b526348e2b09360e01b610bd182610b4e565b5263ad4a123d60e01b90610be490610b5e565b52565b6001600160a01b039091168152602081019190915260400190565b610c18610c369492606083526060830190610a43565b6001600160a01b039093166020820152808303604090910152610a1f565b90565b81601f820112156100f457805190610c50826108b0565b92610c5e6040519485610824565b828452602083830101116100f457815f9260208093018386015e8301015290565b9080601f830112156100f457815190610c9782610b16565b92610ca56040519485610824565b82845260208085019360051b8201019182116100f457602001915b818310610ccd5750505090565b82516001600160e01b0319811681036100f457815260209283019201610cc0565b906109b760246020936040519485916310e1a90760e31b828401528051918291018484015e81015f838201520301601f198101845283610824565b60405190610d38604083610824565b60018252602036818401376360b5befb60e01b610be483610b2d565b906020828203126100f45781516001600160401b0381116100f457610c369201610c7f565b6040519060a0610d898184610824565b60048352601f19015f5b818110610fcc57505060405163574a4cff60e01b815282907f00000000000000000000000000000000000000000000000000000000000000006001600160a01b0316905f81600481855afa908115610621575f91610fb2575b5060405191610dfa83610809565b82525f60208301526040820152610e1082610b2d565b52610e1a81610b2d565b5060405163574a4cff60e01b81527f00000000000000000000000000000000000000000000000000000000000000006001600160a01b0316905f81600481855afa908115610621575f91610f98575b5060405191610e7783610809565b82525f60208301526040820152610e8d82610b4e565b52610e9781610b4e565b50610ea0610d29565b60405190610ead82610809565b7f00000000000000000000000000000000000000000000000000000000000000006001600160a01b031682525f60208301526040820152610eed82610b5e565b52610ef781610b5e565b5060405163574a4cff60e01b8152907f00000000000000000000000000000000000000000000000000000000000000006001600160a01b03165f83600481845afa801561062157610f73935f91610f76575b5060405191610f5783610809565b82525f60208301526040820152610f6d82610b6e565b52610b6e565b50565b610f9291503d805f833e610f8a8183610824565b810190610d54565b5f610f49565b610fac91503d805f833e610f8a8183610824565b5f610e69565b610fc691503d805f833e610f8a8183610824565b5f610dec565b602090604051610fdb81610809565b5f81525f838201526060604082015282828701015201610d93565b6040805191906110068184610824565b60018352601f19015f5b8181106110af57505060405163574a4cff60e01b8152827f00000000000000000000000000000000000000000000000000000000000000006001600160a01b03165f83600481845afa801561062157610f73935f91611095575b506040519161107883610809565b825260026020830152604082015261108f82610b2d565b52610b2d565b6110a991503d805f833e610f8a8183610824565b5f61106a565b6020906040516110be81610809565b5f81525f838201526060604082015282828701015201611010565b8181106110e4575050565b5f81556001016110d9565b908160209103126100f4575180151581036100f45790565b919060018060a01b0383169261116e604051611168602460208301926020845261113881610456604082018a610a1f565b604051938491636c15f2b760e11b60208401525180918484015e81015f838201520301601f198101835282610824565b85611b51565b602081519181808201938492010103126100f45761119b6104569151604051928391602083019586610be7565b5190206111b0816111aa610847565b306114bf565b91823b6114b85761120d9061116860246040516111dd816104566020820196602088526040830190610a1f565b6040519384916387c3adb360e01b60208401525180918484015e81015f838201520301601f198101835282610824565b80518101906020818303126100f4576020810151916001600160401b0383116100f457611241926020809201920101610c39565b6001600160a01b039092165f8181526020818152604080832080546001600160a01b031916891790556001909152902083519193916001600160401b03811161060d5761128e8254610947565b601f811161147d575b506020601f82116001146114165791816112f194926020945f9161140b575b508160011b915f199060031b1c19161790555b6040518093819263a908923560e01b8352876004840152604060248401526044830190610a1f565b03815f895af18015610621576113ee575b506040516101cb8082016001600160401b0381118382101761060d578291611dd7833903905ff58015610621576001600160a01b0316928382036113d7579060205f926024604051809581936370068fcf60e01b83528660048401525af1908115610621575f926020926113bc575b50600460405180948193632e96e0fb60e21b83525af18015610621576113945750565b610f739060203d6020116113b5575b6113ad8183610824565b8101906110ef565b503d6113a3565b6113d290833d85116113b5576113ad8183610824565b611371565b8382630df753ed60e21b5f5260045260245260445ffd5b6114069060203d6020116113b5576113ad8183610824565b611302565b90508301515f6112b6565b601f19821690835f52805f20915f5b81811061146557509260209492600192826112f198961061144d575b5050811b0190556112c9565b8501515f1960f88460031b161c191690555f80611441565b9192602060018192868a015181550194019201611425565b6114a890835f5260205f20601f840160051c810191602085106114ae575b601f0160051c01906110d9565b5f611297565b909150819061149b565b5090925050565b9060405192602084019260ff60f81b845260018060601b03199060601b16602185015260358401526055830152605582526114fb607583610824565b905190206001600160a01b031690565b90604051602081019060208252600c60408201526b6569702e6572632e3235333560a01b606082015260608152611543608082610824565b519020915f5b815181101561156f578061156961156260019385610b7e565b51866115f0565b01611549565b50509050565b604051602081019060208252600b60408201526a6569702e6572632e31363560a81b6060820152606081526115ab608082610824565b5190205f5b82518110156115eb576001906001600160e01b03196115cf8286610b7e565b51165f528260205260405f208260ff19825416179055016115b0565b505050565b8151909291906001600160a01b031661160857509050565b6020810180516003811015610b025715611a4a575b80516003811015610b02576001146117ae575b516003811015610b025760021461164657509050565b5f604082019360028101915b855180518210156117475761166f8263ffffffff60e01b92610b7e565b51165f908152602084905260409020546001600160a01b03161561171e5783518651600192916001600160a01b0316906001600160e01b0319906116b4908490610b7e565b51165f528460205260405f2090838060a01b0316838060a01b031982541617905563ffffffff60e01b6116e8828951610b7e565b5116828060a01b03865116907fa24c9d3a0f634225f6932b85d43ff7a2dcb0b8778ad4caedbc13c840f5e4fd6d5f80a301611652565b85516001600160e01b03199161173391610b7e565b5116631310a10960e11b5f5260045260245ffd5b505082516001600160a01b03165f908152600382016020526040812060010180549181559495506109b794919392508061178e575b5050516001600160a01b031690611d17565b6117a7915f52600760205f20910160031c8101906110d9565b5f8061177c565b5f93916040810192600281019260038201965b85518051821015611a01576117de8263ffffffff60e01b92610b7e565b51165f908152602086905260409020546001600160a01b03161561171e5763ffffffff60e01b61180f828851610b7e565b51165f9081526020869052604090205484516001600160a01b03908116911681146119ef575063ffffffff60e01b611848828851610b7e565b51165f90815260208681526040808320546001600160a01b0316808452918b90529091208751909291906001600160e01b031990611887908490610b7e565b511692835f528060205260405f20549384611917575b505060019250828060a01b03165f52886020528160405f20015415611900575b818060a01b0385511663ffffffff60e01b6118d9838a51610b7e565b51165f528660205260405f2090838060a01b0316838060a01b0319825416179055016117c1565b611912828060a01b0386511685611d17565b6118bd565b5f198501948086116119db57600183019586545f1981019081116119db5761195991611946611976928a611cf6565b90549060031b1c60e01b9283918a611cf6565b90919063ffffffff83549160031b9260e01c831b921b1916179055565b63ffffffff60e01b165f528260205260405f205584549485156119c7576001955f1901906119a48282611cf6565b63ffffffff82549160031b1b19169055555f526020525f60408120555f8061189d565b634e487b7160e01b5f52603160045260245ffd5b634e487b7160e01b5f52601160045260245ffd5b6386bba0cb60e01b5f5260045260245ffd5b505082516001600160a01b03165f9081526020979097526040909620935190959193919250611a2f91611bdd565b8151611a44906001600160a01b031685611c6c565b50611630565b9092604084019160028201915f5b84518051821015611b0957611a758263ffffffff60e01b92610b7e565b51165f908152602085905260409020546001600160a01b0316611ae05786518551600192916001600160a01b0316906001600160e01b031990611ab9908490610b7e565b51165f528560205260405f2090838060a01b0316838060a01b031982541617905501611a58565b84516001600160e01b031991611af591610b7e565b511663c33ebb5960e01b5f5260045260245ffd5b505085516001600160a01b03165f90815260038201602052604090209351909593919250611b3691611bdd565b8151611b4b906001600160a01b031685611c6c565b5061161d565b905f8091602081519101845af48080611bca575b15611b855750506040513d81523d5f602083013e60203d82010160405290565b15611baa57639996b31560e01b5f9081526001600160a01b0391909116600452602490fd5b3d15611bbb576040513d5f823e3d90fd5b63d6bda27560e01b5f5260045ffd5b503d151580611b655750813b1515611b65565b91905f5b815181101561156f576001600160e01b0319611bfd8284610b7e565b511690815f528460205260405f205415611c1c575b6001915001611be1565b6001850180549290600160401b84101561060d57611c4582611959866001809801855584611cf6565b54905f528560205260405f2055611c12565b8054821015610b3a575f5260205f2001905f90565b6001600160a01b0382165f9081526020829052604090205415611c91575b5050600190565b600181018054600160401b81101561060d5783611cb7826001611cdb9401855584611c57565b9080546001600160a01b0360039390931b83811b199091169290931690921b179055565b549160018060a01b03165f5260205260405f20555f80611c8a565b9190918054831015610b3a575f52601c60205f208360031c019260021b1690565b9060018060a01b0381165f528160205260405f205480611d3657505050565b5f198101908082116119db57600184019182545f1981019081116119db57611cb791611d65611d809286611c57565b905460039190911b1c6001600160a01b031692839186611c57565b6001600160a01b03165f90815260208590526040902055805480156119c7575f190190611dad8282611c57565b81549060018060a01b039060031b1b191690555560018060a01b03165f526020525f604081205556fe608034605a57634ec1ce2160e01b60208201526004815260408101906001600160401b0382118183101760465760379160405233605e565b5060405160e690816100e58239f35b634e487b7160e01b5f52604160045260245ffd5b5f80fd5b905f8091602081519101845af4808060d3575b1560905750506040513d81523d5f602083013e60203d82010160405290565b1560b457639996b31560e01b5f9081526001600160a01b0391909116600452602490fd5b3d1560c4576040513d5f823e3d90fd5b63d6bda27560e01b5f5260045ffd5b503d15158060715750813b1515607156fe361560ae57602060a0819052600c60c0526b6569702e6572632e3235333560a01b60e052606060805261010060409081525f80356001600160e01b0319168082527f453157b7d5c0b9d33ac5afb7af88368b2c4ccc0b2d382c6be409a0be46754d2190935220546001600160a01b031690813b156092575f8083368280378136915af43d5f803e15608e573d5ff35b3d5ffd5b6323dbef4b60e01b5f526001600160e01b03191660045260245ffd5b00fea2646970667358221220bf2b41710c0bffb76b04a12507edc780cfbaac0023cbc75b3cb4f5ce0bf366db64736f6c634300081e00338faa70878671ccd212d20771b795c50af8fd3ff6cf27f4bde57e5d4de0aeb673a2646970667358221220d2406a3d7e58dc57fd4b5af52a36418a609fb57c300dfda4642fd0aabf9753ae64736f6c634300081e0033","linkReferences":{}},"methodIdentifiers":{"DIAMOND_LOUPE_FACET()":"978d23cf","ERC165_FACET()":"421d0c7b","ERC8109_INTROSPECTION_FACET()":"75edfda3","POST_DEPLOY_HOOK_FACET()":"bce46817","PROXY_INIT_HASH()":"1c8b7630","calcAddress(address,bytes)":"33a41d70","deploy(address,bytes)":"e97fac05","erc8109Funcs()":"7cbde55d","facetCuts()":"a4b3ad35","facetInterfaces()":"2ea80826","initAccount()":"4ec1ce21","pkgArgsOfAccount(address)":"3f58dd6d","pkgConfig()":"8072e14e","pkgOfAccount(address)":"8a648684","postDeploy(address)":"70068fcf","postDeployFacetCuts()":"d5a7944d"},"id":11}