{"abi":[{"type":"function","name":"facetFuncs","inputs":[],"outputs":[{"name":"funcs","type":"bytes4[]","internalType":"bytes4[]"}],"stateMutability":"pure"},{"type":"function","name":"facetInterfaces","inputs":[],"outputs":[{"name":"interfaces","type":"bytes4[]","internalType":"bytes4[]"}],"stateMutability":"pure"},{"type":"function","name":"facetMetadata","inputs":[],"outputs":[{"name":"name","type":"string","internalType":"string"},{"name":"interfaces","type":"bytes4[]","internalType":"bytes4[]"},{"name":"functions","type":"bytes4[]","internalType":"bytes4[]"}],"stateMutability":"pure"},{"type":"function","name":"facetName","inputs":[],"outputs":[{"name":"name","type":"string","internalType":"string"}],"stateMutability":"pure"},{"type":"function","name":"isOperator","inputs":[{"name":"query","type":"address","internalType":"address"}],"outputs":[{"name":"","type":"bool","internalType":"bool"}],"stateMutability":"view"},{"type":"function","name":"isOperatorFor","inputs":[{"name":"func","type":"bytes4","internalType":"bytes4"},{"name":"query","type":"address","internalType":"address"}],"outputs":[{"name":"","type":"bool","internalType":"bool"}],"stateMutability":"view"},{"type":"function","name":"setOperator","inputs":[{"name":"operator","type":"address","internalType":"address"},{"name":"status","type":"bool","internalType":"bool"}],"outputs":[{"name":"","type":"bool","internalType":"bool"}],"stateMutability":"nonpayable"},{"type":"function","name":"setOperatorFor","inputs":[{"name":"func","type":"bytes4","internalType":"bytes4"},{"name":"newOperator","type":"address","internalType":"address"},{"name":"approval","type":"bool","internalType":"bool"}],"outputs":[{"name":"","type":"bool","internalType":"bool"}],"stateMutability":"nonpayable"},{"type":"event","name":"NewFunctionOperatorStatus","inputs":[{"name":"newOperator","type":"address","indexed":false,"internalType":"address"},{"name":"func","type":"bytes4","indexed":false,"internalType":"bytes4"},{"name":"status","type":"bool","indexed":false,"internalType":"bool"}],"anonymous":false},{"type":"event","name":"NewGlobalOperatorStatus","inputs":[{"name":"newOperator","type":"address","indexed":false,"internalType":"address"},{"name":"status","type":"bool","indexed":false,"internalType":"bool"}],"anonymous":false},{"type":"error","name":"NotOperator","inputs":[{"name":"caller","type":"address","internalType":"address"}]},{"type":"error","name":"NotOwner","inputs":[{"name":"caller","type":"address","internalType":"address"}]}],"bytecode":{"object":"0x6080806040523460155761060a908161001a8239f35b5f80fdfe60806040526004361015610011575f80fd5b5f3560e01c80632ea8082614610355578063558a7297146102ac578063574a4cff1461027d5780635b6f4d011461024e5780636d70f7ae1461020b578063755dbe7c1461013d578063ea562a25146100db5763f10d7a7514610071575f80fd5b346100d7575f3660031901126100d7576100b761008c61050f565b6100d361009761046c565b6100c56100a261049a565b916040519586956060875260608701906103d9565b908582036020870152610370565b908382036040850152610370565b0390f35b5f80fd5b346100d75760403660031901126100d7576100f46103fd565b6100fc6103c3565b90600161010761058e565b019063ffffffff60e01b165f5260205260405f209060018060a01b03165f52602052602060ff60405f2054166040519015158152f35b346100d75760603660031901126100d7576101566103fd565b61015e6103c3565b604435908115158083036100d7577ff071216dc06459e77b915d1883909d92f41239172000b60261dfdc0351889569936101e760609461019c610548565b60016101a661058e565b936101af610548565b63ffffffff60e01b1693845f520160205260405f2060018060a01b0386165f5260205260405f209060ff801983541691151516179055565b6040519260018060a01b0316835260208301526040820152a1602060405160018152f35b346100d75760203660031901126100d7576102246103ad565b61022c61058e565b9060018060a01b03165f52602052602060ff60405f2054166040519015158152f35b346100d7575f3660031901126100d7576100d361026961050f565b6040519182916020835260208301906103d9565b346100d7575f3660031901126100d7576100d361029861049a565b604051918291602083526020830190610370565b346100d75760403660031901126100d7576102c56103ad565b602435801515918282036100d7577f26ba28058a3c072a70c8fd315037fe9b3957237cef5c61a9652a8da41c673daa92610335604093610303610548565b61030b61058e565b610313610548565b60018060a01b0385165f52602052845f209060ff801983541691151516179055565b82516001600160a01b0390921682526020820152a1602060405160018152f35b346100d7575f3660031901126100d7576100d361029861046c565b90602080835192838152019201905f5b81811061038d5750505090565b82516001600160e01b031916845260209384019390920191600101610380565b600435906001600160a01b03821682036100d757565b602435906001600160a01b03821682036100d757565b805180835260209291819084018484015e5f828201840152601f01601f1916010190565b600435906001600160e01b0319821682036100d757565b601f909101601f19168101906001600160401b0382119082101761043757604052565b634e487b7160e01b5f52604160045260245ffd5b8051156104585760200190565b634e487b7160e01b5f52603260045260245ffd5b6040519061047b604083610414565b600182526020368184013763053f888b60e51b6104978361044b565b52565b604051906104a960a083610414565b600482526080366020840137816336b87bd760e11b6104c78261044b565b528051600110156104585763ea562a2560e01b60408201528051600210156104585763558a729760e01b606082015280516003101561045857608001631d576f9f60e21b9052565b60408051919082016001600160401b0381118382101761043757604052600d82526c13dc195c98589b19519858d95d609a1b6020830152565b7f552e522d4f9b6a3d443b47299f900b7b1bce2dacca532b0186b605495413451d546001600160a01b0316330361057b57565b63245aecd360e01b5f523360045260245ffd5b60405160208101906020825260156040820152746372616e652e6163636573732e6f70657261626c6560581b6060820152606081526105ce608082610414565b5190209056fea264697066735822122061ef36d8a3ef94711d6d41ff9b9788152960308a53803d94ac58de1aff8c395a64736f6c634300081e0033","linkReferences":{}},"methodIdentifiers":{"facetFuncs()":"574a4cff","facetInterfaces()":"2ea80826","facetMetadata()":"f10d7a75","facetName()":"5b6f4d01","isOperator(address)":"6d70f7ae","isOperatorFor(bytes4,address)":"ea562a25","setOperator(address,bool)":"558a7297","setOperatorFor(bytes4,address,bool)":"755dbe7c"},"id":6}