{"abi":[{"type":"function","name":"isOperator","inputs":[{"name":"query","type":"address","internalType":"address"}],"outputs":[{"name":"","type":"bool","internalType":"bool"}],"stateMutability":"view"},{"type":"function","name":"isOperatorFor","inputs":[{"name":"func","type":"bytes4","internalType":"bytes4"},{"name":"query","type":"address","internalType":"address"}],"outputs":[{"name":"","type":"bool","internalType":"bool"}],"stateMutability":"view"},{"type":"function","name":"setOperator","inputs":[{"name":"operator","type":"address","internalType":"address"},{"name":"status","type":"bool","internalType":"bool"}],"outputs":[{"name":"","type":"bool","internalType":"bool"}],"stateMutability":"nonpayable"},{"type":"function","name":"setOperatorFor","inputs":[{"name":"func","type":"bytes4","internalType":"bytes4"},{"name":"newOperator","type":"address","internalType":"address"},{"name":"approval","type":"bool","internalType":"bool"}],"outputs":[{"name":"","type":"bool","internalType":"bool"}],"stateMutability":"nonpayable"},{"type":"event","name":"NewFunctionOperatorStatus","inputs":[{"name":"newOperator","type":"address","indexed":false,"internalType":"address"},{"name":"func","type":"bytes4","indexed":false,"internalType":"bytes4"},{"name":"status","type":"bool","indexed":false,"internalType":"bool"}],"anonymous":false},{"type":"event","name":"NewGlobalOperatorStatus","inputs":[{"name":"newOperator","type":"address","indexed":false,"internalType":"address"},{"name":"status","type":"bool","indexed":false,"internalType":"bool"}],"anonymous":false},{"type":"error","name":"NotOperator","inputs":[{"name":"caller","type":"address","internalType":"address"}]},{"type":"error","name":"NotOwner","inputs":[{"name":"caller","type":"address","internalType":"address"}]}],"bytecode":{"object":"0x6080806040523460155761038b908161001a8239f35b5f80fdfe60806040526004361015610011575f80fd5b5f3560e01c8063558a7297146101bc5780636d70f7ae14610179578063755dbe7c146100ab5763ea562a2514610045575f80fd5b346100a75760403660031901126100a75761005e610291565b61006661027b565b9060016100716102ee565b019063ffffffff60e01b165f5260205260405f209060018060a01b03165f52602052602060ff60405f2054166040519015158152f35b5f80fd5b346100a75760603660031901126100a7576100c4610291565b6100cc61027b565b604435908115158083036100a7577ff071216dc06459e77b915d1883909d92f41239172000b60261dfdc03518895699361015560609461010a6102a8565b60016101146102ee565b9361011d6102a8565b63ffffffff60e01b1693845f520160205260405f2060018060a01b0386165f5260205260405f209060ff801983541691151516179055565b6040519260018060a01b0316835260208301526040820152a1602060405160018152f35b346100a75760203660031901126100a757610192610265565b61019a6102ee565b9060018060a01b03165f52602052602060ff60405f2054166040519015158152f35b346100a75760403660031901126100a7576101d5610265565b602435801515918282036100a7577f26ba28058a3c072a70c8fd315037fe9b3957237cef5c61a9652a8da41c673daa926102456040936102136102a8565b61021b6102ee565b6102236102a8565b60018060a01b0385165f52602052845f209060ff801983541691151516179055565b82516001600160a01b0390921682526020820152a1602060405160018152f35b600435906001600160a01b03821682036100a757565b602435906001600160a01b03821682036100a757565b600435906001600160e01b0319821682036100a757565b7f552e522d4f9b6a3d443b47299f900b7b1bce2dacca532b0186b605495413451d546001600160a01b031633036102db57565b63245aecd360e01b5f523360045260245ffd5b60405160208101906020825260156040820152746372616e652e6163636573732e6f70657261626c6560581b6060820152606081526080810181811060018060401b038211176103415760405251902090565b634e487b7160e01b5f52604160045260245ffdfea264697066735822122052b708dca243625afbcc649b3a50b348fb18516e2fd615aed7ae5a504d14e01564736f6c634300081e0033","linkReferences":{}},"methodIdentifiers":{"isOperator(address)":"6d70f7ae","isOperatorFor(bytes4,address)":"ea562a25","setOperator(address,bool)":"558a7297","setOperatorFor(bytes4,address,bool)":"755dbe7c"},"id":7}