{"abi":[{"type":"function","name":"facetFuncs","inputs":[],"outputs":[{"name":"funcs","type":"bytes4[]","internalType":"bytes4[]"}],"stateMutability":"pure"},{"type":"function","name":"facetInterfaces","inputs":[],"outputs":[{"name":"interfaces","type":"bytes4[]","internalType":"bytes4[]"}],"stateMutability":"pure"},{"type":"function","name":"facetMetadata","inputs":[],"outputs":[{"name":"name","type":"string","internalType":"string"},{"name":"interfaces","type":"bytes4[]","internalType":"bytes4[]"},{"name":"functions","type":"bytes4[]","internalType":"bytes4[]"}],"stateMutability":"pure"},{"type":"function","name":"facetName","inputs":[],"outputs":[{"name":"name","type":"string","internalType":"string"}],"stateMutability":"pure"},{"type":"function","name":"supportsInterface","inputs":[{"name":"interfaceId","type":"bytes4","internalType":"bytes4"}],"outputs":[{"name":"isSupported","type":"bool","internalType":"bool"}],"stateMutability":"view"}],"bytecode":{"object":"0x608080604052346015576102de908161001a8239f35b5f80fdfe6080806040526004361015610012575f80fd5b5f3560e01c90816301ffc9a7146100f1575080632ea80826146100ec578063574a4cff146100ec5780635b6f4d01146100bd5763f10d7a7514610053575f80fd5b346100b9575f3660031901126100b95761009961006e610271565b6100b561007961022e565b6100a761008461022e565b916040519586956060875260608701906101d3565b908582036020870152610167565b908382036040850152610167565b0390f35b5f80fd5b346100b9575f3660031901126100b9576100b56100d8610271565b6040519182916020835260208301906101d3565b6101a4565b346100b95760203660031901126100b9576004359063ffffffff60e01b82168092036100b957602081019060208252600b60408201526a6569702e6572632e31363560a81b60608201526060815261014a6080826101f7565b519020905f52602052602060ff60405f2054166040519015158152f35b90602080835192838152019201905f5b8181106101845750505090565b82516001600160e01b031916845260209384019390920191600101610177565b346100b9575f3660031901126100b9576100b56101bf61022e565b604051918291602083526020830190610167565b805180835260209291819084018484015e5f828201840152601f01601f1916010190565b601f909101601f19168101906001600160401b0382119082101761021a57604052565b634e487b7160e01b5f52604160045260245ffd5b6040519061023d6040836101f7565b6001825260208083019036823782511561025d576301ffc9a760e01b9052565b634e487b7160e01b5f52603260045260245ffd5b60408051919082016001600160401b0381118382101761021a57604052600b82526a115490cc4d8d519858d95d60aa1b602083015256fea2646970667358221220e8ecf867c5f667a5e87f1c1d79e79e2e1b52fc97e02ad962a6a7243a42f2a7d564736f6c634300081e0033","linkReferences":{}},"methodIdentifiers":{"facetFuncs()":"574a4cff","facetInterfaces()":"2ea80826","facetMetadata()":"f10d7a75","facetName()":"5b6f4d01","supportsInterface(bytes4)":"01ffc9a7"},"id":30}