{"abi":[{"type":"function","name":"log","inputs":[{"name":"logMsg1","type":"string","internalType":"string"},{"name":"addr1","type":"address","internalType":"address"},{"name":"logMsgs2","type":"string","internalType":"string"},{"name":"addr2","type":"address","internalType":"address"},{"name":"logMsgs3","type":"string","internalType":"string"},{"name":"num","type":"uint256","internalType":"uint256"}],"outputs":[],"stateMutability":"pure"},{"type":"function","name":"log","inputs":[{"name":"logMsg","type":"string","internalType":"string"},{"name":"data","type":"bytes","internalType":"bytes"}],"outputs":[],"stateMutability":"pure"},{"type":"function","name":"log","inputs":[{"name":"logMsg","type":"string","internalType":"string"},{"name":"value","type":"bytes32","internalType":"bytes32"}],"outputs":[],"stateMutability":"pure"},{"type":"function","name":"log","inputs":[{"name":"logMsg","type":"string","internalType":"string"},{"name":"values","type":"bytes4[]","internalType":"bytes4[]"}],"outputs":[],"stateMutability":"pure"},{"type":"function","name":"log","inputs":[{"name":"logMsg1","type":"string","internalType":"string"},{"name":"addr1","type":"address","internalType":"address"},{"name":"logMsgs2","type":"string","internalType":"string"},{"name":"addr2","type":"address","internalType":"address"},{"name":"logMsgs3","type":"string","internalType":"string"},{"name":"num","type":"uint256","internalType":"uint256"},{"name":"logMsg4","type":"string","internalType":"string"},{"name":"addr3","type":"address","internalType":"address"}],"outputs":[],"stateMutability":"pure"},{"type":"function","name":"logBehaviorCompare","inputs":[{"name":"behaviorName","type":"string","internalType":"string"},{"name":"functionName","type":"string","internalType":"string"},{"name":"compareType","type":"string","internalType":"string"},{"name":"expected","type":"address","internalType":"address"},{"name":"actual","type":"address","internalType":"address"}],"outputs":[],"stateMutability":"view"},{"type":"function","name":"logBehaviorCompare","inputs":[{"name":"behaviorName","type":"string","internalType":"string"},{"name":"functionName","type":"string","internalType":"string"},{"name":"compareType","type":"string","internalType":"string"},{"name":"expected","type":"bytes32","internalType":"bytes32"},{"name":"actual","type":"bytes32","internalType":"bytes32"}],"outputs":[],"stateMutability":"pure"},{"type":"function","name":"logBehaviorCompare","inputs":[{"name":"behaviorName","type":"string","internalType":"string"},{"name":"functionName","type":"string","internalType":"string"},{"name":"compareType","type":"string","internalType":"string"},{"name":"expected","type":"string","internalType":"string"},{"name":"actual","type":"string","internalType":"string"}],"outputs":[],"stateMutability":"pure"},{"type":"function","name":"logBehaviorEntry","inputs":[{"name":"behaviorName","type":"string","internalType":"string"},{"name":"functionName","type":"string","internalType":"string"}],"outputs":[],"stateMutability":"pure"},{"type":"function","name":"logBehaviorError","inputs":[{"name":"behaviorName","type":"string","internalType":"string"},{"name":"functionName","type":"string","internalType":"string"},{"name":"errorPrefix","type":"string","internalType":"string"},{"name":"errorSuffix","type":"string","internalType":"string"}],"outputs":[],"stateMutability":"pure"},{"type":"function","name":"logBehaviorExit","inputs":[{"name":"behaviorName","type":"string","internalType":"string"},{"name":"functionName","type":"string","internalType":"string"}],"outputs":[],"stateMutability":"pure"},{"type":"function","name":"logBehaviorExpectation","inputs":[{"name":"behaviorName","type":"string","internalType":"string"},{"name":"functionName","type":"string","internalType":"string"},{"name":"expectationType","type":"string","internalType":"string"},{"name":"expectedValue","type":"string","internalType":"string"}],"outputs":[],"stateMutability":"pure"},{"type":"function","name":"logBehaviorProcessing","inputs":[{"name":"behaviorName","type":"string","internalType":"string"},{"name":"functionName","type":"string","internalType":"string"},{"name":"processType","type":"string","internalType":"string"},{"name":"processValue","type":"string","internalType":"string"}],"outputs":[],"stateMutability":"pure"},{"type":"function","name":"logBehaviorValidation","inputs":[{"name":"behaviorName","type":"string","internalType":"string"},{"name":"functionName","type":"string","internalType":"string"},{"name":"validationType","type":"string","internalType":"string"},{"name":"isValid","type":"bool","internalType":"bool"}],"outputs":[],"stateMutability":"pure"},{"type":"function","name":"logCompare","inputs":[{"name":"subjectLabel","type":"string","internalType":"string"},{"name":"logBody","type":"string","internalType":"string"},{"name":"expected","type":"bytes32","internalType":"bytes32"},{"name":"actual","type":"bytes32","internalType":"bytes32"}],"outputs":[],"stateMutability":"pure"},{"type":"function","name":"logCompare","inputs":[{"name":"subjectLabel","type":"string","internalType":"string"},{"name":"logBody","type":"string","internalType":"string"},{"name":"expected","type":"address","internalType":"address"},{"name":"actual","type":"address","internalType":"address"}],"outputs":[],"stateMutability":"view"},{"type":"function","name":"logCompare","inputs":[{"name":"subjectLabel","type":"string","internalType":"string"},{"name":"logBody","type":"string","internalType":"string"},{"name":"expectedLog","type":"string","internalType":"string"},{"name":"actualLog","type":"string","internalType":"string"}],"outputs":[],"stateMutability":"pure"},{"type":"function","name":"logEntry","inputs":[{"name":"contractName","type":"string","internalType":"string"},{"name":"functionSig","type":"string","internalType":"string"}],"outputs":[],"stateMutability":"pure"},{"type":"function","name":"logExit","inputs":[{"name":"contractName","type":"string","internalType":"string"},{"name":"functionSig","type":"string","internalType":"string"}],"outputs":[],"stateMutability":"pure"},{"type":"function","name":"logFuncMsg","inputs":[{"name":"contractName","type":"string","internalType":"string"},{"name":"functionSig","type":"string","internalType":"string"},{"name":"logMsg","type":"string","internalType":"string"}],"outputs":[],"stateMutability":"pure"}],"bytecode":{"object":"0x60808060405234601957611849908161001e823930815050f35b5f80fdfe60806040526004361015610011575f80fd5b5f3560e01c8063073eeb7a14610edb57806322810bf414610db557806323cdd8e814610ceb5780633692d61a14610bad578063528843bd14610b6c57806355444d4014610a205780635777d9bd1461085557806363cbdce5146107a1578063738d4cc9146107345780637965c501146106c6578063967677df1461062d5780639ac1238d14610587578063a1643a0e14610513578063b6487c3f146104a8578063b930909414610438578063ce9f60691461039a578063d83578f81461028a578063ddd6cd8614610275578063e3feae87146101965763eaba1a22146100f5575f80fd5b610194602061018f600282600e818060018161011036611025565b9591604099919399519c8a8e9b5191829101848d015e8a0190601d60f91b83830152805192839101602183015e0101906d01d1d10283937b1b2b9b9b4b733960951b84830152805192839101600f83015e0101906101d160f51b84830152805192839101601083015e01015f838201520301601f198101835282610f1d565b6115a5565b005b60a0366003190112610271576004356001600160401b038111610271576101c1903690600401610f91565b6024356001600160401b038111610271576101e0903690600401610f91565b6044356001600160401b038111610271576101ff903690600401610f91565b906064356001600160401b0381116102715761021f903690600401610f91565b90608435906001600160401b038211610271576101949461025561018f61024d61025a953690600401610f91565b968484611141565b6111b1565b60405190610269602083610f1d565b5f8252611400565b5f80fd5b61019461028136611025565b92919091611400565b610100366003190112610271576004356001600160401b038111610271576102b6903690600401610f91565b6102be610ff9565b6044356001600160401b038111610271576102dd903690600401610f91565b906102e661100f565b916084356001600160401b03811161027157610306903690600401610f91565b9260c4356001600160401b03811161027157610326903690600401610f91565b60e4356001600160a01b03811694908590036102715761038961018f966103756103949561036f61037a61036f996103756101949e61036f6103759a60018060a01b0316611757565b90611101565b611101565b916001600160a01b0316611757565b61036f60a4356114df565b91611757565b610194602061018f600782600d81806001816103b536611025565b9591604099919399519c8a8e9b5191829101848d015e8a0190601d60f91b83830152805192839101602183015e0101906c01d1d1022bc3832b1ba34b7339609d1b84830152805192839101600e83015e010190660103a37903132960cd1b84830152805192839101601483015e01015f838201520301601f198101835282610f1d565b6080366003190112610271576004356001600160401b03811161027157610463903690600401610f91565b6024356001600160401b03811161027157610482903690600401610f91565b906044356001600160a01b038116810361027157610194926104a261100f565b92611310565b6080366003190112610271576004356001600160401b038111610271576104d3903690600401610f91565b602435906001600160401b038211610271576104f6610194923690600401610f91565b6105016044356115e9565b9061050d6064356115e9565b92611400565b6060366003190112610271576004356001600160401b0381116102715761053e903690600401610f91565b6024356001600160401b0381116102715761055d903690600401610f91565b60443591906001600160401b03831161027157610581610194933690600401610f91565b916111fa565b60a0366003190112610271576004356001600160401b038111610271576105b2903690600401610f91565b6024356001600160401b038111610271576105d1903690600401610f91565b604435906001600160401b038211610271576101949261025561018f6105fe610605953690600401610f91565b8484611141565b604051610613602082610f1d565b5f81526106216064356115e9565b9061050d6084356115e9565b610194602061018f600c826003818060018161064836611025565b9591604099919399519c8a8e9b5191829101848d015e8a0190601d60f91b83830152805192839101602183015e0101906201d1d160ed1b84830152805192839101600483015e0101906b0102aa722ac2822a1aa22a2160a51b84830152805192839101600f83015e01015f838201520301601f198101835282610f1d565b610194602061018f6015600183806106dd36610faf565b604051825190988995938291018685015e840190601d60f91b83830152805192839101602183015e0101741d1d1022b73a32b934b73390333ab731ba34b7b71760591b838201520301600a19810184520182610f1d565b610194602061018f60146001838061074b36610faf565b604051825190988995938291018685015e840190601d60f91b83830152805192839101602183015e0101731d1d1022bc34ba34b73390333ab731ba34b7b71760611b838201520301600b19810184520182610f1d565b60a0366003190112610271576004356001600160401b038111610271576107cc903690600401610f91565b6024356001600160401b038111610271576107eb903690600401610f91565b6044356001600160401b0381116102715761080a903690600401610f91565b61081261100f565b608435929091906001600160a01b0384168403610271578461025561018f61083e948461019499611141565b6040519061084d602083610f1d565b5f8252611310565b6040366003190112610271576004356001600160401b03811161027157610880903690600401610f91565b602435906001600160401b0382116102715736602383011215610271576004820135916001600160401b038311610a0c578260051b90604051936108c76020840186610f1d565b8452602460208501928201019036821161027157602401915b8183106109eb57846108f1856115a5565b80515f8061094a61095e60409485519061090b8783610f1d565b601082526f03b30b63ab2b9903632b733ba34101e960851b60208301528651938492632d839cb360e21b60208501528860248501526064840190611581565b90604483015203601f198101835282610f1d565b6020815191016a636f6e736f6c652e6c6f675afa5061097e61018f6110ad565b5f5b82518110156109e0576001905f8063ffffffff60e01b60208460051b880101511685519063e05f48d160e01b60208301526024820152602481526109c5604482610f1d565b6020815191016a636f6e736f6c652e6c6f675afa5001610980565b61019461018f6110ad565b82356001600160e01b031981168103610271578152602092830192016108e0565b634e487b7160e01b5f52604160045260245ffd5b6080366003190112610271576004356001600160401b03811161027157610a4b903690600401610f91565b6024356001600160401b03811161027157610a6a903690600401610f91565b6044356001600160401b03811161027157610a89903690600401610f91565b90606435908115158203610271576101949360036020600493600182809861018f985f14610b43578180604051610ac1604082610f1d565b60058152641d985b1a5960da1b82820152955b6040519c8a8e9b5191829101848d015e8a0190601d60f91b83830152805192839101602183015e0101906201d1d160ed1b848301528051928391018983015e0101906301034b9960e51b84830152805192839101600783015e01015f838201520301601f198101835282610f1d565b8180604051610b53604082610f1d565b60078152661a5b9d985b1a5960ca1b8282015295610ad4565b610194610b7836610faf565b60405191610b87604084610f1d565b60148352731d1d1022bc34ba34b73390333ab731ba34b7b71760611b60208401526111fa565b6040366003190112610271576004356001600160401b03811161027157610bd8903690600401610f91565b60405190602435610bea608084610f1d565b60428352602083016060368237835115610cd75760309053825160011015610cd757607860218401535f5b60208110610c2a5761019461018f8585611101565b81811a9060ff8260041c166010811015610cd7578160011b9282840460021483151715610cc3578360020180600211610cc357600f926f181899199a1a9b1b9c1cb0b131b232b360811b901a90610c8190896114ce565b5316916010831015610cd75760030180600311610cc3576001926f181899199a1a9b1b9c1cb0b131b232b360811b901a90610cbc90876114ce565b5301610c15565b634e487b7160e01b5f52601160045260245ffd5b634e487b7160e01b5f52603260045260245ffd5b6040366003190112610271576004356001600160401b03811161027157610d16903690600401610f91565b6024356001600160401b038111610271573660238201121561027157610d87610d955f93610d58610d5286953690602481600401359101610f5b565b916115a5565b610d6361018f6110ad565b6040519283916305f3bfab60e11b6020840152602060248401526044830190611581565b03601f198101835282610f1d565b6020815191016a636f6e736f6c652e6c6f675afa5061019461018f6110ad565b60c0366003190112610271576004356001600160401b03811161027157610de0903690600401610f91565b610de8610ff9565b6044356001600160401b03811161027157610e07903690600401610f91565b90610e1061100f565b926084356001600160401b0381116102715761019494602061018f9481809781610e63610e54610e4583993690600401610f91565b956001600160a01b0316611757565b966001600160a01b0316611757565b918180610e7160a4356114df565b986040519d8c8f82819f519384930191015e8c01908282015f8152815193849201905e0101905f8252805192839101825e01905f8252805192839101825e01905f8252805192839101825e01905f8252805192839101825e015f815203601f198101835282610f1d565b610194610ee736610faf565b60405191610ef6604084610f1d565b60158352741d1d1022b73a32b934b73390333ab731ba34b7b71760591b60208401526111fa565b601f909101601f19168101906001600160401b03821190821017610a0c57604052565b6001600160401b038111610a0c57601f01601f191660200190565b929192610f6782610f40565b91610f756040519384610f1d565b829481845281830111610271578281602093845f960137010152565b9080601f8301121561027157816020610fac93359101610f5b565b90565b906040600319830112610271576004356001600160401b0381116102715782610fda91600401610f91565b91602435906001600160401b03821161027157610fac91600401610f91565b602435906001600160a01b038216820361027157565b606435906001600160a01b038216820361027157565b906080600319830112610271576004356001600160401b038111610271578261105091600401610f91565b916024356001600160401b038111610271578161106f91600401610f91565b916044356001600160401b038111610271578261108e91600401610f91565b91606435906001600160401b03821161027157610fac91600401610f91565b604051906110bc608083610f1d565b605082526f2d2d2d2d2d2d2d2d2d2d2d2d2d2d2d2d60801b6060835f5160206117f45f395f51905f5260208201525f5160206117f45f395f51905f5260408201520152565b61113f906020808095946040519684889551918291018487015e8401908282015f8152815193849201905e01015f815203601f198101845283610f1d565b565b600d9060016020809695818061113f976040519a878c985191829101848a015e870190601d60f91b83830152805192839101602183015e0101906c01d1d1021b7b6b830b934b7339609d1b84830152805192839101600e83015e01015f838201520301601f198101845283610f1d565b600161113f916020808096956040519784899551918291018487015e840190601d60f91b83830152805192839101602183015e01015f838201520301601f198101845283610f1d565b600361018f916001602061113f968180809860405199878b985191829101848a015e870190601d60f91b83830152805192839101602183015e0101906201d1d160ed1b84830152805192839101600483015e01015f838201520301601f198101835282610f1d565b602081830312610271578051906001600160401b038211610271570181601f820112156102715780519061129582610f40565b926112a36040519485610f1d565b8284526020838301011161027157815f9260208093018386015e8301015290565b600461113f916020808096956040519784899551918291018487015e840190630101d1d160e51b83830152805192839101602483015e01015f838201520301601f198101845283610f1d565b60405163028a249b60e41b81526001600160a01b03909316600484018190529092905f82602481737109709ecfa91a80626ff3989d68f67f5b1dd12d5afa9081156113f557611370925f926113cd575b5061136a90611757565b906112c4565b60405163028a249b60e41b81526001600160a01b0390941660048501819052939091905f81602481737109709ecfa91a80626ff3989d68f67f5b1dd12d5afa80156113f55761113f9561050d925f926113cd575061136a90611757565b61136a9192506113ee903d805f833e6113e68183610f1d565b810190611262565b9190611360565b6040513d5f823e3d90fd5b9061113f939261146791611437604094855161141c8782610f1d565b6009815268039bab13532b1ba1d160bd1b6020820152611713565b805161148d575b50825161144b8482610f1d565b600a815269032bc3832b1ba32b21d160b51b6020820152611713565b61147381519182610f1d565b6008815267030b1ba3ab0b61d160c51b6020820152611713565b611496906115a5565b5f61143e565b906114a682610f40565b6114b36040519182610f1d565b82815280926114c4601f1991610f40565b0190602036910137565b908151811015610cd7570160200190565b801561156157805f81805b61154657506114f88161149c565b925b61150357505090565b5f198101908111610cc3578091600a81066030019182603011610cc357600a9260f81b6001600160f81b0319165f1a9061153d90866114ce565b530490816114fa565b91505f198114610cc3576001600a91019104808392916114ea565b50604051611570604082610f1d565b60018152600360fc1b602082015290565b805180835260209291819084018484015e5f828201840152601f01601f1916010190565b5f610d876115d2829360405192839163104c13eb60e21b6020840152602060248401526044830190611581565b6020815191016a636f6e736f6c652e6c6f675afa50565b80156116f0575f9080805b6116e25750600182901b916001600160ff1b03811603610cc35760028201808311610cc3576116229061149c565b91825115610cd75760306020840153825160011015610cd75760019060786021850153015b600181116116a757506116575790565b60405162461bcd60e51b815260206004820152602260248201527f55696e745574696c733a20686578206c656e67746820696e73756666696369656044820152611b9d60f21b6064820152608490fd5b90600f81166010811015610cd7576f181899199a1a9b1b9c1cb0b131b232b360811b901a6116d583856114ce565b5360041c905f1901611647565b916001019160081c806115f4565b506040516116ff604082610f1d565b60048152630307830360e41b602082015290565b6117456115d25f9392610d878594604051948593634b5c427760e01b6020860152604060248601526064850190611581565b83810360231901604485015290611581565b611761602a610f40565b9061176f6040519283610f1d565b602a825261177d602a610f40565b6020830190601f1901368237825115610cd75760309053815160011015610cd7576078602183015360295b600181116117b857506116575790565b90600f81166010811015610cd7576f181899199a1a9b1b9c1cb0b131b232b360811b901a6117e683856114ce565b5360041c905f19016117a856fe2d2d2d2d2d2d2d2d2d2d2d2d2d2d2d2d2d2d2d2d2d2d2d2d2d2d2d2d2d2d2d2da2646970667358221220b749810449396b7bde0bde820ac3e78955b13dbe56f7cfa8530f128d5b22919264736f6c634300081e0033","linkReferences":{}},"methodIdentifiers":{"log(string,address,string,address,string,uint256)":"22810bf4","log(string,address,string,address,string,uint256,string,address)":"d83578f8","log(string,bytes)":"23cdd8e8","log(string,bytes32)":"3692d61a","log(string,bytes4[])":"5777d9bd","logBehaviorCompare(string,string,string,address,address)":"63cbdce5","logBehaviorCompare(string,string,string,bytes32,bytes32)":"9ac1238d","logBehaviorCompare(string,string,string,string,string)":"e3feae87","logBehaviorEntry(string,string)":"7965c501","logBehaviorError(string,string,string,string)":"967677df","logBehaviorExit(string,string)":"738d4cc9","logBehaviorExpectation(string,string,string,string)":"ce9f6069","logBehaviorProcessing(string,string,string,string)":"eaba1a22","logBehaviorValidation(string,string,string,bool)":"55444d40","logCompare(string,string,address,address)":"b9309094","logCompare(string,string,bytes32,bytes32)":"b6487c3f","logCompare(string,string,string,string)":"ddd6cd86","logEntry(string,string)":"073eeb7a","logExit(string,string)":"528843bd","logFuncMsg(string,string,string)":"a1643a0e"},"id":57}