{"abi":[{"type":"function","name":"facetFuncs","inputs":[],"outputs":[{"name":"funcs","type":"bytes4[]","internalType":"bytes4[]"}],"stateMutability":"pure"},{"type":"function","name":"facetInterfaces","inputs":[],"outputs":[{"name":"interfaces","type":"bytes4[]","internalType":"bytes4[]"}],"stateMutability":"pure"},{"type":"function","name":"facetMetadata","inputs":[],"outputs":[{"name":"name","type":"string","internalType":"string"},{"name":"interfaces","type":"bytes4[]","internalType":"bytes4[]"},{"name":"functions","type":"bytes4[]","internalType":"bytes4[]"}],"stateMutability":"pure"},{"type":"function","name":"facetName","inputs":[],"outputs":[{"name":"name","type":"string","internalType":"string"}],"stateMutability":"pure"},{"type":"function","name":"postDeploy","inputs":[],"outputs":[{"name":"","type":"bool","internalType":"bool"}],"stateMutability":"nonpayable"},{"type":"error","name":"AddressEmptyCode","inputs":[{"name":"target","type":"address","internalType":"address"}]},{"type":"error","name":"FailedCall","inputs":[]}],"bytecode":{"object":"0x6080806040523460155761034a908161001a8239f35b5f80fdfe60806040526004361015610011575f80fd5b5f3560e01c80632ea8082614610133578063574a4cff146101335780635b6f4d0114610104578063ba5b83ec146100ba5763f10d7a7514610050575f80fd5b346100b6575f3660031901126100b65761009661006b610242565b6100b26100766101ff565b6100a46100816101ff565b916040519586956060875260608701906101a4565b908582036020870152610138565b908382036040850152610138565b0390f35b5f80fd5b346100b6575f3660031901126100b6576100f86040516370068fcf60e01b6020820152306024820152602481526100f26044826101c8565b33610288565b50602060405160018152f35b346100b6575f3660031901126100b6576100b261011f610242565b6040519182916020835260208301906101a4565b610175565b90602080835192838152019201905f5b8181106101555750505090565b82516001600160e01b031916845260209384019390920191600101610148565b346100b6575f3660031901126100b6576100b26101906101ff565b604051918291602083526020830190610138565b805180835260209291819084018484015e5f828201840152601f01601f1916010190565b601f909101601f19168101906001600160401b038211908210176101eb57604052565b634e487b7160e01b5f52604160045260245ffd5b6040519061020e6040836101c8565b6001825260208083019036823782511561022e57632e96e0fb60e21b9052565b634e487b7160e01b5f52603260045260245ffd5b60408051919082016001600160401b038111838210176101eb57604052601a825279141bdcdd11195c1b1bde5058d8dbdd5b9d121bdbdad19858d95d60321b6020830152565b905f8091602081519101845af48080610301575b156102bc5750506040513d81523d5f602083013e60203d82010160405290565b156102e157639996b31560e01b5f9081526001600160a01b0391909116600452602490fd5b3d156102f2576040513d5f823e3d90fd5b63d6bda27560e01b5f5260045ffd5b503d15158061029c5750813b151561029c56fea26469706673582212208f886fc69877006fae79f3e24ea130d98d0ea12678a6bd1269b73c9c9556f9d964736f6c634300081e0033","linkReferences":{}},"methodIdentifiers":{"facetFuncs()":"574a4cff","facetInterfaces()":"2ea80826","facetMetadata()":"f10d7a75","facetName()":"5b6f4d01","postDeploy()":"ba5b83ec"},"id":12}