{"abi":[{"type":"function","name":"acceptOwnershipTransfer","inputs":[],"outputs":[],"stateMutability":"nonpayable"},{"type":"function","name":"cancelPendingOwnershipTransfer","inputs":[],"outputs":[],"stateMutability":"nonpayable"},{"type":"function","name":"confirmOwnershipTransfer","inputs":[{"name":"pendingOwner_","type":"address","internalType":"address"}],"outputs":[],"stateMutability":"nonpayable"},{"type":"function","name":"getOwnershipTransferBuffer","inputs":[],"outputs":[{"name":"","type":"uint256","internalType":"uint256"}],"stateMutability":"view"},{"type":"function","name":"initiateOwnershipTransfer","inputs":[{"name":"pendingOwner_","type":"address","internalType":"address"}],"outputs":[],"stateMutability":"nonpayable"},{"type":"function","name":"owner","inputs":[],"outputs":[{"name":"","type":"address","internalType":"address"}],"stateMutability":"view"},{"type":"function","name":"pendingOwner","inputs":[],"outputs":[{"name":"","type":"address","internalType":"address"}],"stateMutability":"view"},{"type":"function","name":"preConfirmedOwner","inputs":[],"outputs":[{"name":"","type":"address","internalType":"address"}],"stateMutability":"view"},{"type":"event","name":"OwnershipTransferConfirmed","inputs":[{"name":"prevOwner","type":"address","indexed":true,"internalType":"address"},{"name":"newOwner","type":"address","indexed":true,"internalType":"address"}],"anonymous":false},{"type":"event","name":"OwnershipTransferInitiated","inputs":[{"name":"prevOwner","type":"address","indexed":true,"internalType":"address"},{"name":"newOwner","type":"address","indexed":true,"internalType":"address"}],"anonymous":false},{"type":"event","name":"OwnershipTransferred","inputs":[{"name":"prevOwner","type":"address","indexed":true,"internalType":"address"},{"name":"newOwner","type":"address","indexed":true,"internalType":"address"}],"anonymous":false},{"type":"error","name":"BufferPeriodNotElapsed","inputs":[{"name":"currentTime","type":"uint256","internalType":"uint256"},{"name":"bufferEndTime","type":"uint256","internalType":"uint256"}]},{"type":"error","name":"NotOwner","inputs":[{"name":"caller","type":"address","internalType":"address"}]},{"type":"error","name":"NotPending","inputs":[{"name":"caller","type":"address","internalType":"address"}]}],"bytecode":{"object":"0x608080604052346015576104f4908161001a8239f35b5f80fdfe6080806040526004361015610012575f80fd5b5f3560e01c9081630f9f2530146103ec575080631af1b0c4146103c05780633c213957146102d7578063737293e21461027b5780638da5cb5b14610247578063b842e87f14610184578063c0b6f561146100ac5763e30c397814610074575f80fd5b346100a8575f3660031901126100a8575f51602061043f5f395f51905f52546040516001600160a01b039091168152602090f35b5f80fd5b346100a85760203660031901126100a8576004356001600160a01b038116908190036100a8575f51602061045f5f395f51905f52546001600160a01b031633819003610171575f51602061049f5f395f51905f5254420180421161015d575f51602061047f5f395f51905f52555f51602061043f5f395f51905f5280546001600160a01b031916831790557fb150023a879fd806e3599b6ca8ee3b60f0e360ab3846d128d67ebce1a391639a5f80a3005b634e487b7160e01b5f52601160045260245ffd5b63245aecd360e01b5f523360045260245ffd5b346100a8575f3660031901126100a8575f51602061043f5f395f51905f52546001600160a01b031633819003610234575f51602061045f5f395f51905f5280546001600160a01b0319811683179091555f51602061043f5f395f51905f5280546001600160a81b03191690555f5f51602061047f5f395f51905f528190556001600160a01b03909116907f8be0079c531659141344cd1fd0a4f28419497f9722a3daafe3b4186f6b6457e09080a3005b63a7fa19b160e01b5f523360045260245ffd5b346100a8575f3660031901126100a8575f51602061045f5f395f51905f52546040516001600160a01b039091168152602090f35b346100a8575f3660031901126100a8575f51602061045f5f395f51905f52546001600160a01b03163303610171575f51602061043f5f395f51905f5280546001600160a81b03191690555f5f51602061047f5f395f51905f5255005b346100a85760203660031901126100a8576004356001600160a01b038116908190036100a8575f51602061045f5f395f51905f52546001600160a01b031633819003610171575f51602061047f5f395f51905f52548042106103aa57505f51602061043f5f395f51905f52546001600160a01b03811692838103610398575060ff60a01b1916600160a01b175f51602061043f5f395f51905f52557f646fe5eeb20d96ea45a9caafcb508854a2fb5660885ced7772e12a633c9745715f80a3005b63a7fa19b160e01b5f5260045260245ffd5b63d64ede7360e01b5f524260045260245260445ffd5b346100a8575f3660031901126100a85760206103da610412565b6040516001600160a01b039091168152f35b346100a8575f3660031901126100a8576020905f51602061049f5f395f51905f52548152f35b5f51602061043f5f395f51905f525460ff8160a01c1615610439576001600160a01b031690565b505f9056fe552e522d4f9b6a3d443b47299f900b7b1bce2dacca532b0186b605495413451e552e522d4f9b6a3d443b47299f900b7b1bce2dacca532b0186b605495413451d552e522d4f9b6a3d443b47299f900b7b1bce2dacca532b0186b6054954134520552e522d4f9b6a3d443b47299f900b7b1bce2dacca532b0186b605495413451fa2646970667358221220a7f376f12a7d2755ee81d84f83813a5404a3e4620ca65a5d72501bc8af0ec64a64736f6c634300081e0033","linkReferences":{}},"methodIdentifiers":{"acceptOwnershipTransfer()":"b842e87f","cancelPendingOwnershipTransfer()":"737293e2","confirmOwnershipTransfer(address)":"3c213957","getOwnershipTransferBuffer()":"0f9f2530","initiateOwnershipTransfer(address)":"c0b6f561","owner()":"8da5cb5b","pendingOwner()":"e30c3978","preConfirmedOwner()":"1af1b0c4"},"id":4}