{"abi":[{"type":"function","name":"acceptOwnershipTransfer","inputs":[],"outputs":[],"stateMutability":"nonpayable"},{"type":"function","name":"cancelPendingOwnershipTransfer","inputs":[],"outputs":[],"stateMutability":"nonpayable"},{"type":"function","name":"confirmOwnershipTransfer","inputs":[{"name":"pendingOwner_","type":"address","internalType":"address"}],"outputs":[],"stateMutability":"nonpayable"},{"type":"function","name":"facetFuncs","inputs":[],"outputs":[{"name":"funcs","type":"bytes4[]","internalType":"bytes4[]"}],"stateMutability":"pure"},{"type":"function","name":"facetInterfaces","inputs":[],"outputs":[{"name":"interfaces","type":"bytes4[]","internalType":"bytes4[]"}],"stateMutability":"pure"},{"type":"function","name":"facetMetadata","inputs":[],"outputs":[{"name":"name","type":"string","internalType":"string"},{"name":"interfaces","type":"bytes4[]","internalType":"bytes4[]"},{"name":"functions","type":"bytes4[]","internalType":"bytes4[]"}],"stateMutability":"pure"},{"type":"function","name":"facetName","inputs":[],"outputs":[{"name":"name","type":"string","internalType":"string"}],"stateMutability":"pure"},{"type":"function","name":"getOwnershipTransferBuffer","inputs":[],"outputs":[{"name":"","type":"uint256","internalType":"uint256"}],"stateMutability":"view"},{"type":"function","name":"initiateOwnershipTransfer","inputs":[{"name":"pendingOwner_","type":"address","internalType":"address"}],"outputs":[],"stateMutability":"nonpayable"},{"type":"function","name":"owner","inputs":[],"outputs":[{"name":"","type":"address","internalType":"address"}],"stateMutability":"view"},{"type":"function","name":"pendingOwner","inputs":[],"outputs":[{"name":"","type":"address","internalType":"address"}],"stateMutability":"view"},{"type":"function","name":"preConfirmedOwner","inputs":[],"outputs":[{"name":"","type":"address","internalType":"address"}],"stateMutability":"view"},{"type":"event","name":"OwnershipTransferConfirmed","inputs":[{"name":"prevOwner","type":"address","indexed":true,"internalType":"address"},{"name":"newOwner","type":"address","indexed":true,"internalType":"address"}],"anonymous":false},{"type":"event","name":"OwnershipTransferInitiated","inputs":[{"name":"prevOwner","type":"address","indexed":true,"internalType":"address"},{"name":"newOwner","type":"address","indexed":true,"internalType":"address"}],"anonymous":false},{"type":"event","name":"OwnershipTransferred","inputs":[{"name":"prevOwner","type":"address","indexed":true,"internalType":"address"},{"name":"newOwner","type":"address","indexed":true,"internalType":"address"}],"anonymous":false},{"type":"error","name":"BufferPeriodNotElapsed","inputs":[{"name":"currentTime","type":"uint256","internalType":"uint256"},{"name":"bufferEndTime","type":"uint256","internalType":"uint256"}]},{"type":"error","name":"NotOwner","inputs":[{"name":"caller","type":"address","internalType":"address"}]},{"type":"error","name":"NotPending","inputs":[{"name":"caller","type":"address","internalType":"address"}]}],"bytecode":{"object":"0x608080604052346015576107f7908161001a8239f35b5f80fdfe6080806040526004361015610012575f80fd5b5f3560e01c9081630f9f2530146104f7575080631af1b0c4146104cb5780632ea80826146104b05780633c213957146103c7578063574a4cff146103985780635b6f4d0114610369578063737293e21461030d5780638da5cb5b146102d9578063b842e87f14610216578063c0b6f5611461013e578063e30c39781461010a5763f10d7a75146100a0575f80fd5b34610106575f366003190112610106576100e66100bb6106d4565b6101026100c66105d8565b6100f46100d1610602565b9160405195869560608752606087019061055a565b90858203602087015261051d565b90838203604085015261051d565b0390f35b5f80fd5b34610106575f366003190112610106575f5160206107425f395f51905f52546040516001600160a01b039091168152602090f35b34610106576020366003190112610106576004356001600160a01b03811690819003610106575f5160206107625f395f51905f52546001600160a01b031633819003610203575f5160206107a25f395f51905f525442018042116101ef575f5160206107825f395f51905f52555f5160206107425f395f51905f5280546001600160a01b031916831790557fb150023a879fd806e3599b6ca8ee3b60f0e360ab3846d128d67ebce1a391639a5f80a3005b634e487b7160e01b5f52601160045260245ffd5b63245aecd360e01b5f523360045260245ffd5b34610106575f366003190112610106575f5160206107425f395f51905f52546001600160a01b0316338190036102c6575f5160206107625f395f51905f5280546001600160a01b0319811683179091555f5160206107425f395f51905f5280546001600160a81b03191690555f5f5160206107825f395f51905f528190556001600160a01b03909116907f8be0079c531659141344cd1fd0a4f28419497f9722a3daafe3b4186f6b6457e09080a3005b63a7fa19b160e01b5f523360045260245ffd5b34610106575f366003190112610106575f5160206107625f395f51905f52546040516001600160a01b039091168152602090f35b34610106575f366003190112610106575f5160206107625f395f51905f52546001600160a01b03163303610203575f5160206107425f395f51905f5280546001600160a81b03191690555f5f5160206107825f395f51905f5255005b34610106575f366003190112610106576101026103846106d4565b60405191829160208352602083019061055a565b34610106575f366003190112610106576101026103b3610602565b60405191829160208352602083019061051d565b34610106576020366003190112610106576004356001600160a01b03811690819003610106575f5160206107625f395f51905f52546001600160a01b031633819003610203575f5160206107825f395f51905f525480421061049a57505f5160206107425f395f51905f52546001600160a01b03811692838103610488575060ff60a01b1916600160a01b175f5160206107425f395f51905f52557f646fe5eeb20d96ea45a9caafcb508854a2fb5660885ced7772e12a633c9745715f80a3005b63a7fa19b160e01b5f5260045260245ffd5b63d64ede7360e01b5f524260045260245260445ffd5b34610106575f366003190112610106576101026103b36105d8565b34610106575f3660031901126101065760206104e5610715565b6040516001600160a01b039091168152f35b34610106575f366003190112610106576020905f5160206107a25f395f51905f52548152f35b90602080835192838152019201905f5b81811061053a5750505090565b82516001600160e01b03191684526020938401939092019160010161052d565b805180835260209291819084018484015e5f828201840152601f01601f1916010190565b6040519190601f01601f191682016001600160401b038111838210176105a357604052565b634e487b7160e01b5f52604160045260245ffd5b8051156105c45760200190565b634e487b7160e01b5f52603260045260245ffd5b6105e2604061057e565b600181529060203681840137631318341f60e21b6105ff836105b7565b52565b6101209061060f8261057e565b6008815291601f19013660208401378163c0b6f56160e01b610630826105b7565b528051600110156105c457633c21395760e01b60408201528051600210156105c4576339b949f160e11b60608201528051600310156105c45763b842e87f60e01b60808201528051600410156105c457638da5cb5b60e01b60a08201528051600510156105c457631c61872f60e31b60c08201528051600610156105c4576306bc6c3160e21b60e08201528051600710156105c4576101000162f9f25360e41b9052565b60408051919082016001600160401b038111838210176105a3576040526015825274135d5b1d1a54dd195c13dddb98589b19519858d95d605a1b6020830152565b5f5160206107425f395f51905f525460ff8160a01c161561073c576001600160a01b031690565b505f9056fe552e522d4f9b6a3d443b47299f900b7b1bce2dacca532b0186b605495413451e552e522d4f9b6a3d443b47299f900b7b1bce2dacca532b0186b605495413451d552e522d4f9b6a3d443b47299f900b7b1bce2dacca532b0186b6054954134520552e522d4f9b6a3d443b47299f900b7b1bce2dacca532b0186b605495413451fa26469706673582212201d4736587f44c02caa24d4b9ef489cff693c4188ca8b3907aee8feeaba25c7bd64736f6c634300081e0033","linkReferences":{}},"methodIdentifiers":{"acceptOwnershipTransfer()":"b842e87f","cancelPendingOwnershipTransfer()":"737293e2","confirmOwnershipTransfer(address)":"3c213957","facetFuncs()":"574a4cff","facetInterfaces()":"2ea80826","facetMetadata()":"f10d7a75","facetName()":"5b6f4d01","getOwnershipTransferBuffer()":"0f9f2530","initiateOwnershipTransfer(address)":"c0b6f561","owner()":"8da5cb5b","pendingOwner()":"e30c3978","preConfirmedOwner()":"1af1b0c4"},"id":2}