{"abi":[{"type":"function","name":"facetAddress","inputs":[{"name":"_functionSelector","type":"bytes4","internalType":"bytes4"}],"outputs":[{"name":"","type":"address","internalType":"address"}],"stateMutability":"view"},{"type":"function","name":"functionFacetPairs","inputs":[],"outputs":[{"name":"pairs","type":"tuple[]","internalType":"struct IERC8109Introspection.FunctionFacetPair[]","components":[{"name":"selector","type":"bytes4","internalType":"bytes4"},{"name":"facet","type":"address","internalType":"address"}]}],"stateMutability":"view"},{"type":"error","name":"IndexOutOfBounds","inputs":[{"name":"length","type":"uint256","internalType":"uint256"},{"name":"invalidIndex","type":"uint256","internalType":"uint256"},{"name":"errorCode","type":"uint256","internalType":"uint256"}]}],"bytecode":{"object":"0x608080604052346015576103ea908161001a8239f35b5f80fdfe60806040526004361015610011575f80fd5b5f3560e01c806360b5befb146100805763cdffacc61461002f575f80fd5b3461007c57602036600319011261007c5760043563ffffffff60e01b811680910361007c57600261005e610302565b01905f52602052602060018060a01b0360405f205416604051908152f35b5f80fd5b3461007c575f36600319011261007c57610098610302565b6001810180546060926003015f5b8281101561024c576100b8818461038b565b50835f5260018060a01b038160205f20015416936100ee865160018060a01b0387165f5284602052600160405f2001549061033f565b936100f885610360565b9461010660405196876102df565b808652610115601f1991610360565b015f5b8181106102295750505f5b875181101561015657806101396001928a610377565b516101448289610377565b5261014f8188610377565b5001610123565b50955195919492916001600160a01b03841691905f5b835f5284602052600160405f20015481101561021857835f5284602052600160405f200190815461019d828261038b565b50811015610204576001915f526101fd60205f208260031c0154604051906101c4826102b0565b63ffffffff60e01b9060e08560051b161c60e01b1681528860208201526101eb838d61033f565b906101f6828c610377565b5289610377565b500161016c565b634e487b7160e01b5f52603260045260245ffd5b5094965094919250506001016100a6565b602090604051610238816102b0565b5f81525f8382015282828a01015201610118565b846040518091602082016020835281518091526020604084019201905f5b818110610278575050500390f35b825180516001600160e01b03191685526020908101516001600160a01b0316818601528695506040909401939092019160010161026a565b604081019081106001600160401b038211176102cb57604052565b634e487b7160e01b5f52604160045260245ffd5b601f909101601f19168101906001600160401b038211908210176102cb57604052565b604051602081019060208252600c60408201526b6569702e6572632e3235333560a01b6060820152606081526103396080826102df565b51902090565b9190820180921161034c57565b634e487b7160e01b5f52601160045260245ffd5b6001600160401b0381116102cb5760051b60200190565b80518210156102045760209160051b010190565b8181111561039a575050600190565b635400feb960e01b5f52600452602452603260445260645ffdfea2646970667358221220b6a4e39afb87c7ff38e995397d1fa26969cf64b63efb5f3bcbc4a6b62e0eaa8a64736f6c634300081e0033","linkReferences":{}},"methodIdentifiers":{"facetAddress(bytes4)":"cdffacc6","functionFacetPairs()":"60b5befb"},"id":40}