{"abi":[{"type":"function","name":"getMessage","inputs":[],"outputs":[{"name":"","type":"string","internalType":"string"}],"stateMutability":"view"},{"type":"function","name":"setMessage","inputs":[{"name":"message","type":"string","internalType":"string"}],"outputs":[{"name":"","type":"bool","internalType":"bool"}],"stateMutability":"nonpayable"},{"type":"event","name":"NewMessage","inputs":[{"name":"oldMessage","type":"string","indexed":false,"internalType":"string"},{"name":"newMessage","type":"string","indexed":false,"internalType":"string"}],"anonymous":false}],"bytecode":{"object":"0x6080806040523460155761044b908161001a8239f35b5f80fdfe6080806040526004361015610012575f80fd5b5f3560e01c908163368b877214610069575063ce6d41de14610032575f80fd5b34610065575f3660031901126100655761006161004d610319565b6040519182916020835260208301906102bd565b0390f35b5f80fd5b34610065576020366003190112610065576004356001600160401b0381116100655736602382011215610065576004810135906001600160401b038211610286576100be601f8301601f19166020018461029a565b818352366024838301011161006557815f9260246020930183860137830101527f33f9897216838d3426adfbb9dcb455323ae7e170a584880d835bc7327ad6137d61012161010a610319565b61012f6040519283926040845260408401906102bd565b8281036020840152856102bd565b0390a180516001600160401b038111610286576101595f5160206103d65f395f51905f52546102e1565b601f811161022a575b50602091601f82116001146101b2579181925f926101a7575b50508160011b915f199060031b1c1916175f5160206103d65f395f51905f52555b602060405160018152f35b01519050828061017b565b601f198216925f5160206103d65f395f51905f525f52805f20915f5b858110610212575083600195106101fa575b505050811b015f5160206103d65f395f51905f525561019c565b01515f1960f88460031b161c191690558280806101e0565b919260206001819286850151815501940192016101ce565b5f5160206103d65f395f51905f525f525f5160206103f65f395f51905f52601f830160051c8101916020841061027c575b601f0160051c01905b8181106102715750610162565b5f8155600101610264565b909150819061025b565b634e487b7160e01b5f52604160045260245ffd5b601f909101601f19168101906001600160401b0382119082101761028657604052565b805180835260209291819084018484015e5f828201840152601f01601f1916010190565b90600182811c9216801561030f575b60208310146102fb57565b634e487b7160e01b5f52602260045260245ffd5b91607f16916102f0565b604051905f825f5160206103d65f395f51905f525491610338836102e1565b80835292600181169081156103b6575060011461035e575b61035c9250038361029a565b565b505f5160206103d65f395f51905f525f90815290915f5160206103f65f395f51905f525b81831061039a57505090602061035c92820101610350565b6020919350806001915483858901015201910190918492610382565b6020925061035c94915060ff191682840152151560051b82010161035056fed32bbaeef0dc4ce0a1707655450e5e93886dfad6f521b6fb7c9b8f3a455fa2650cdf796f053837afc636efaf40b085110f2fb6919a73eb6387627a34a3080789a2646970667358221220f8a2229939e706d28908efcc4cf68282a8f04846be5a285d237a710dac3506f664736f6c634300081e0033","linkReferences":{}},"methodIdentifiers":{"getMessage()":"ce6d41de","setMessage(string)":"368b8772"},"id":43}