{"abi":[{"type":"function","name":"facetAddress","inputs":[{"name":"_functionSelector","type":"bytes4","internalType":"bytes4"}],"outputs":[{"name":"facetAddress_","type":"address","internalType":"address"}],"stateMutability":"view"},{"type":"function","name":"facetAddresses","inputs":[],"outputs":[{"name":"facetAddresses_","type":"address[]","internalType":"address[]"}],"stateMutability":"view"},{"type":"function","name":"facetFunctionSelectors","inputs":[{"name":"_facet","type":"address","internalType":"address"}],"outputs":[{"name":"facetFunctionSelectors_","type":"bytes4[]","internalType":"bytes4[]"}],"stateMutability":"view"},{"type":"function","name":"facets","inputs":[],"outputs":[{"name":"facets_","type":"tuple[]","internalType":"struct IDiamondLoupe.Facet[]","components":[{"name":"facetAddress","type":"address","internalType":"address"},{"name":"functionSelectors","type":"bytes4[]","internalType":"bytes4[]"}]}],"stateMutability":"view"},{"type":"error","name":"FacetAlreadyPresent","inputs":[{"name":"facet","type":"address","internalType":"address"}]},{"type":"error","name":"FacetNotPresent","inputs":[{"name":"facet","type":"address","internalType":"address"}]},{"type":"error","name":"FunctionAlreadyPresent","inputs":[{"name":"functionSelector","type":"bytes4","internalType":"bytes4"}]},{"type":"error","name":"FunctionNotPresent","inputs":[{"name":"functionSelector","type":"bytes4","internalType":"bytes4"}]},{"type":"error","name":"IndexOutOfBounds","inputs":[{"name":"length","type":"uint256","internalType":"uint256"},{"name":"invalidIndex","type":"uint256","internalType":"uint256"},{"name":"errorCode","type":"uint256","internalType":"uint256"}]}],"bytecode":{"object":"0x60808060405234601557610681908161001a8239f35b5f80fdfe60806040526004361015610011575f80fd5b5f3560e01c806352ef6b2c146102855780637a0ed627146100fa578063adfca15e146100965763cdffacc614610045575f80fd5b346100925760203660031901126100925760043563ffffffff60e01b81168091036100925760026100746103c8565b01905f52602052602060018060a01b0360405f205416604051908152f35b5f80fd5b34610092576020366003190112610092576004356001600160a01b03811681036100925760036100c46103c8565b019060018060a01b03165f526020526100f66100e260405f20610444565b604051918291602083526020830190610339565b0390f35b34610092575f366003190112610092576101126103c8565b6001810180549161012283610405565b9161013060405193846103a5565b838352601f1961013f85610405565b015f5b81811061025b57505060035f9201915b848110156101dc57808511156101c1575f82815260208082208301546001600160a01b0316808352908590526040909120600192919061019190610444565b6040519161019e83610376565b825260208201526101af828761041c565b526101ba818661041c565b5001610152565b84635400feb960e01b5f52600452602452603260445260645ffd5b836040518091602082016020835281518091526040830190602060408260051b8601019301915f905b82821061021457505050500390f35b9193600191939550602061024b8192603f198a82030186526040838a51878060a01b03815116845201519181858201520190610339565b9601920192018594939192610205565b60209060409694965161026d81610376565b5f815260608382015282828801015201949294610142565b34610092575f36600319011261009257600161029f6103c8565b01604051806020835491828152019081935f5260205f20905f5b81811061031a57505050816102cf9103826103a5565b604051918291602083019060208452518091526040830191905f5b8181106102f8575050500390f35b82516001600160a01b03168452859450602093840193909201916001016102ea565b82546001600160a01b03168452602090930192600192830192016102b9565b90602080835192838152019201905f5b8181106103565750505090565b82516001600160e01b031916845260209384019390920191600101610349565b604081019081106001600160401b0382111761039157604052565b634e487b7160e01b5f52604160045260245ffd5b601f909101601f19168101906001600160401b0382119082101761039157604052565b604051602081019060208252600c60408201526b6569702e6572632e3235333560a01b6060820152606081526103ff6080826103a5565b51902090565b6001600160401b0381116103915760051b60200190565b80518210156104305760209160051b010190565b634e487b7160e01b5f52603260045260245ffd5b600101604051808260208294549384815201905f5260205f20925f905b8060078301106105a6576104b7945491818110610587575b818110610568575b818110610549575b81811061052a575b81811061050b575b8181106104ec575b8181106104cf575b106104ba575b5003826103a5565b90565b6001600160e01b03191681526020015f6104af565b602083811b6001600160e01b0319168552909301926001016104a9565b604083901b6001600160e01b03191684526020909301926001016104a1565b606083901b6001600160e01b0319168452602090930192600101610499565b608083901b6001600160e01b0319168452602090930192600101610491565b60a083901b6001600160e01b0319168452602090930192600101610489565b60c083901b6001600160e01b0319168452602090930192600101610481565b60e083901b6001600160e01b0319168452602090930192600101610479565b916008919350610100600191865463ffffffff60e01b8160e01b16825263ffffffff60e01b8160c01b16602083015263ffffffff60e01b8160a01b16604083015263ffffffff60e01b8160801b16606083015263ffffffff60e01b8160601b16608083015263ffffffff60e01b8160401b1660a083015263ffffffff60e01b8160201b1660c083015263ffffffff60e01b1660e082015201940192018492939161046156fea2646970667358221220bf6d81a50c701df0b44a6a11c8cdd0c151303b1930ed63ad25e4dc1ab34ce36264736f6c634300081e0033","linkReferences":{}},"methodIdentifiers":{"facetAddress(bytes4)":"cdffacc6","facetAddresses()":"52ef6b2c","facetFunctionSelectors(address)":"adfca15e","facets()":"7a0ed627"},"id":34}