{"abi":[{"type":"function","name":"facetFuncs","inputs":[],"outputs":[{"name":"funcs","type":"bytes4[]","internalType":"bytes4[]"}],"stateMutability":"pure"},{"type":"function","name":"facetInterfaces","inputs":[],"outputs":[{"name":"interfaces","type":"bytes4[]","internalType":"bytes4[]"}],"stateMutability":"pure"},{"type":"function","name":"facetMetadata","inputs":[],"outputs":[{"name":"name","type":"string","internalType":"string"},{"name":"interfaces","type":"bytes4[]","internalType":"bytes4[]"},{"name":"functions","type":"bytes4[]","internalType":"bytes4[]"}],"stateMutability":"pure"},{"type":"function","name":"facetName","inputs":[],"outputs":[{"name":"name","type":"string","internalType":"string"}],"stateMutability":"pure"},{"type":"function","name":"getMessage","inputs":[],"outputs":[{"name":"","type":"string","internalType":"string"}],"stateMutability":"view"},{"type":"function","name":"setMessage","inputs":[{"name":"message","type":"string","internalType":"string"}],"outputs":[{"name":"","type":"bool","internalType":"bool"}],"stateMutability":"nonpayable"},{"type":"event","name":"NewMessage","inputs":[{"name":"oldMessage","type":"string","indexed":false,"internalType":"string"},{"name":"newMessage","type":"string","indexed":false,"internalType":"string"}],"anonymous":false},{"type":"error","name":"NotOperator","inputs":[{"name":"caller","type":"address","internalType":"address"}]}],"bytecode":{"object":"0x608080604052346015576106f2908161001a8239f35b5f80fdfe60806040526004361015610011575f80fd5b5f358060e01c9081632ea8082614610421578163368b87721461014157508063574a4cff146101125780635b6f4d01146100f7578063ce6d41de146100c85763f10d7a751461005e575f80fd5b346100c4575f3660031901126100c4576100a4610079610556565b6100c06100846104e1565b6100b261008f61050f565b9160405195869560608752606087019061049c565b90858203602087015261043c565b90838203604085015261043c565b0390f35b5f80fd5b346100c4575f3660031901126100c4576100c06100e36105c0565b60405191829160208352602083019061049c565b346100c4575f3660031901126100c4576100c06100e3610556565b346100c4575f3660031901126100c4576100c061012d61050f565b60405191829160208352602083019061043c565b346100c45760203660031901126100c457600435906001600160401b0382116100c457366023830112156100c45760048201356001600160401b0381116103c5576040519261019a601f8301601f191660200185610479565b81845236602483830101116100c457815f92602460209301838701378401015260405160208101906020825260156040820152746372616e652e6163636573732e6f70657261626c6560581b6060820152606081526101fa608082610479565b519020335f9081526020829052604090205460ff161591826103ec575b50506103d9577f33f9897216838d3426adfbb9dcb455323ae7e170a584880d835bc7327ad6137d6102606102496105c0565b61026e60405192839260408452604084019061049c565b82810360208401528561049c565b0390a180516001600160401b0381116103c5576102985f51602061067d5f395f51905f5254610588565b601f8111610369575b50602091601f82116001146102f1579181925f926102e6575b50508160011b915f199060031b1c1916175f51602061067d5f395f51905f52555b602060405160018152f35b0151905082806102ba565b601f198216925f51602061067d5f395f51905f525f52805f20915f5b85811061035157508360019510610339575b505050811b015f51602061067d5f395f51905f52556102db565b01515f1960f88460031b161c1916905582808061031f565b9192602060018192868501518155019401920161030d565b5f51602061067d5f395f51905f525f525f51602061069d5f395f51905f52601f830160051c810191602084106103bb575b601f0160051c01905b8181106103b057506102a1565b5f81556001016103a3565b909150819061039a565b634e487b7160e01b5f52604160045260245ffd5b633b63649d60e11b5f523360045260245ffd5b6001925063ffffffff60e01b165f520160205260405f2060018060a01b0333165f5260205260ff60405f205416158280610217565b346100c4575f3660031901126100c4576100c061012d6104e1565b90602080835192838152019201905f5b8181106104595750505090565b82516001600160e01b03191684526020938401939092019160010161044c565b601f909101601f19168101906001600160401b038211908210176103c557604052565b805180835260209291819084018484015e5f828201840152601f01601f1916010190565b8051156104cd5760200190565b634e487b7160e01b5f52603260045260245ffd5b604051906104f0604083610479565b6001825260203681840137633e39b1ab60e21b61050c836104c0565b52565b6040519061051e606083610479565b60028252604036602084013781636736a0ef60e11b61053c826104c0565b528051600110156104cd57604001631b45c3b960e11b9052565b60405190610565604083610479565b601482527313dc195c98589b1951dc99595d195c919858d95d60621b6020830152565b90600182811c921680156105b6575b60208310146105a257565b634e487b7160e01b5f52602260045260245ffd5b91607f1691610597565b604051905f825f51602061067d5f395f51905f5254916105df83610588565b808352926001811690811561065d5750600114610605575b61060392500383610479565b565b505f51602061067d5f395f51905f525f90815290915f51602061069d5f395f51905f525b818310610641575050906020610603928201016105f7565b6020919350806001915483858901015201910190918492610629565b6020925061060394915060ff191682840152151560051b8201016105f756fed32bbaeef0dc4ce0a1707655450e5e93886dfad6f521b6fb7c9b8f3a455fa2650cdf796f053837afc636efaf40b085110f2fb6919a73eb6387627a34a3080789a26469706673582212200b1ad4b90367dd7298c3aaf94e1c56378b7799e5d3297d67dcdb86ce3974574564736f6c634300081e0033","linkReferences":{}},"methodIdentifiers":{"facetFuncs()":"574a4cff","facetInterfaces()":"2ea80826","facetMetadata()":"f10d7a75","facetName()":"5b6f4d01","getMessage()":"ce6d41de","setMessage(string)":"368b8772"},"id":131}