{"abi":[{"type":"function","name":"facetFuncs","inputs":[],"outputs":[{"name":"funcs","type":"bytes4[]","internalType":"bytes4[]"}],"stateMutability":"pure"},{"type":"function","name":"facetInterfaces","inputs":[],"outputs":[{"name":"interfaces","type":"bytes4[]","internalType":"bytes4[]"}],"stateMutability":"pure"},{"type":"function","name":"facetMetadata","inputs":[],"outputs":[{"name":"name","type":"string","internalType":"string"},{"name":"interfaces","type":"bytes4[]","internalType":"bytes4[]"},{"name":"functions","type":"bytes4[]","internalType":"bytes4[]"}],"stateMutability":"pure"},{"type":"function","name":"facetName","inputs":[],"outputs":[{"name":"name","type":"string","internalType":"string"}],"stateMutability":"pure"},{"type":"function","name":"getMessage","inputs":[],"outputs":[{"name":"","type":"string","internalType":"string"}],"stateMutability":"view"},{"type":"function","name":"setMessage","inputs":[{"name":"message","type":"string","internalType":"string"}],"outputs":[{"name":"","type":"bool","internalType":"bool"}],"stateMutability":"nonpayable"},{"type":"event","name":"NewMessage","inputs":[{"name":"oldMessage","type":"string","indexed":false,"internalType":"string"},{"name":"newMessage","type":"string","indexed":false,"internalType":"string"}],"anonymous":false}],"bytecode":{"object":"0x6080806040523460155761063b908161001a8239f35b5f80fdfe60806040526004361015610011575f80fd5b5f3560e01c80632ea8082614610372578063368b87721461013e578063574a4cff1461010f5780635b6f4d01146100f4578063ce6d41de146100c55763f10d7a751461005b575f80fd5b346100c1575f3660031901126100c1576100a16100766104a7565b6100bd610081610432565b6100af61008c610460565b916040519586956060875260608701906103ed565b90858203602087015261038d565b90838203604085015261038d565b0390f35b5f80fd5b346100c1575f3660031901126100c1576100bd6100e0610509565b6040519182916020835260208301906103ed565b346100c1575f3660031901126100c1576100bd6100e06104a7565b346100c1575f3660031901126100c1576100bd61012a610460565b60405191829160208352602083019061038d565b346100c15760203660031901126100c1576004356001600160401b0381116100c157366023820112156100c15760048101356001600160401b03811161035e5760405191610196601f8301601f1916602001846103ca565b81835236602483830101116100c157815f9260246020930183860137830101527f33f9897216838d3426adfbb9dcb455323ae7e170a584880d835bc7327ad6137d6101f96101e2610509565b6102076040519283926040845260408401906103ed565b8281036020840152856103ed565b0390a180516001600160401b03811161035e576102315f5160206105c65f395f51905f52546104d1565b601f8111610302575b50602091601f821160011461028a579181925f9261027f575b50508160011b915f199060031b1c1916175f5160206105c65f395f51905f52555b602060405160018152f35b015190508280610253565b601f198216925f5160206105c65f395f51905f525f52805f20915f5b8581106102ea575083600195106102d2575b505050811b015f5160206105c65f395f51905f5255610274565b01515f1960f88460031b161c191690558280806102b8565b919260206001819286850151815501940192016102a6565b5f5160206105c65f395f51905f525f525f5160206105e65f395f51905f52601f830160051c81019160208410610354575b601f0160051c01905b818110610349575061023a565b5f815560010161033c565b9091508190610333565b634e487b7160e01b5f52604160045260245ffd5b346100c1575f3660031901126100c1576100bd61012a610432565b90602080835192838152019201905f5b8181106103aa5750505090565b82516001600160e01b03191684526020938401939092019160010161039d565b601f909101601f19168101906001600160401b0382119082101761035e57604052565b805180835260209291819084018484015e5f828201840152601f01601f1916010190565b80511561041e5760200190565b634e487b7160e01b5f52603260045260245ffd5b604051906104416040836103ca565b6001825260203681840137633e39b1ab60e21b61045d83610411565b52565b6040519061046f6060836103ca565b60028252604036602084013781636736a0ef60e11b61048d82610411565b5280516001101561041e57604001631b45c3b960e11b9052565b604051906104b66040836103ca565b600c82526b11dc99595d195c919858d95d60a21b6020830152565b90600182811c921680156104ff575b60208310146104eb57565b634e487b7160e01b5f52602260045260245ffd5b91607f16916104e0565b604051905f825f5160206105c65f395f51905f525491610528836104d1565b80835292600181169081156105a6575060011461054e575b61054c925003836103ca565b565b505f5160206105c65f395f51905f525f90815290915f5160206105e65f395f51905f525b81831061058a57505090602061054c92820101610540565b6020919350806001915483858901015201910190918492610572565b6020925061054c94915060ff191682840152151560051b82010161054056fed32bbaeef0dc4ce0a1707655450e5e93886dfad6f521b6fb7c9b8f3a455fa2650cdf796f053837afc636efaf40b085110f2fb6919a73eb6387627a34a3080789a264697066735822122067457cbcbb74d97345fd5f34b5623589677cbc822ae8837af46046ba0bc969d564736f6c634300081e0033","linkReferences":{}},"methodIdentifiers":{"facetFuncs()":"574a4cff","facetInterfaces()":"2ea80826","facetMetadata()":"f10d7a75","facetName()":"5b6f4d01","getMessage()":"ce6d41de","setMessage(string)":"368b8772"},"id":40}