{"abi":[{"type":"constructor","inputs":[],"stateMutability":"nonpayable"},{"type":"function","name":"MULTI_STEP_OWNABLE_FACET","inputs":[],"outputs":[{"name":"","type":"address","internalType":"contract IFacet"}],"stateMutability":"view"},{"type":"function","name":"OPERABLE_FACET","inputs":[],"outputs":[{"name":"","type":"address","internalType":"contract IFacet"}],"stateMutability":"view"},{"type":"function","name":"OPERABLE_GREETER_FACET","inputs":[],"outputs":[{"name":"","type":"address","internalType":"contract IFacet"}],"stateMutability":"view"},{"type":"function","name":"calcSalt","inputs":[{"name":"pkgArgs","type":"bytes","internalType":"bytes"}],"outputs":[{"name":"salt","type":"bytes32","internalType":"bytes32"}],"stateMutability":"pure"},{"type":"function","name":"diamondConfig","inputs":[],"outputs":[{"name":"config","type":"tuple","internalType":"struct IDiamondFactoryPackage.DiamondConfig","components":[{"name":"facetCuts","type":"tuple[]","internalType":"struct IDiamond.FacetCut[]","components":[{"name":"facetAddress","type":"address","internalType":"address"},{"name":"action","type":"uint8","internalType":"enum IDiamond.FacetCutAction"},{"name":"functionSelectors","type":"bytes4[]","internalType":"bytes4[]"}]},{"name":"interfaces","type":"bytes4[]","internalType":"bytes4[]"}]}],"stateMutability":"view"},{"type":"function","name":"facetAddresses","inputs":[],"outputs":[{"name":"facetAddresses_","type":"address[]","internalType":"address[]"}],"stateMutability":"view"},{"type":"function","name":"facetCuts","inputs":[],"outputs":[{"name":"facetCuts_","type":"tuple[]","internalType":"struct IDiamond.FacetCut[]","components":[{"name":"facetAddress","type":"address","internalType":"address"},{"name":"action","type":"uint8","internalType":"enum IDiamond.FacetCutAction"},{"name":"functionSelectors","type":"bytes4[]","internalType":"bytes4[]"}]}],"stateMutability":"view"},{"type":"function","name":"facetInterfaces","inputs":[],"outputs":[{"name":"interfaces","type":"bytes4[]","internalType":"bytes4[]"}],"stateMutability":"pure"},{"type":"function","name":"initAccount","inputs":[{"name":"initArgs","type":"bytes","internalType":"bytes"}],"outputs":[],"stateMutability":"nonpayable"},{"type":"function","name":"packageMetadata","inputs":[],"outputs":[{"name":"name_","type":"string","internalType":"string"},{"name":"interfaces","type":"bytes4[]","internalType":"bytes4[]"},{"name":"facets","type":"address[]","internalType":"address[]"}],"stateMutability":"view"},{"type":"function","name":"packageName","inputs":[],"outputs":[{"name":"name_","type":"string","internalType":"string"}],"stateMutability":"pure"},{"type":"function","name":"postDeploy","inputs":[{"name":"","type":"address","internalType":"address"}],"outputs":[{"name":"","type":"bool","internalType":"bool"}],"stateMutability":"nonpayable"},{"type":"function","name":"processArgs","inputs":[{"name":"pkgArgs","type":"bytes","internalType":"bytes"}],"outputs":[{"name":"processedPkgArgs","type":"bytes","internalType":"bytes"}],"stateMutability":"pure"},{"type":"function","name":"updatePkg","inputs":[{"name":"","type":"address","internalType":"address"},{"name":"","type":"bytes","internalType":"bytes"}],"outputs":[{"name":"","type":"bool","internalType":"bool"}],"stateMutability":"nonpayable"}],"bytecode":{"object":"0x610100806040523461012d573060805261070c8181016001600160401b03811183821017610119578291610eda833903905ff0801561010e576001600160a01b031660a0526040516106248082016001600160401b038111838210176101195782916115e6833903905ff0801561010e576001600160a01b031660c0526040516108118082016001600160401b03811183821017610119578291611c0a833903905ff0801561010e576001600160a01b031660e052604051610da89081610132823960805181505060a05181818161063a015281816109c90152610b28015260c051818181610576015281816109fd0152610ba5015260e0518181816106ad01528181610a310152610c230152f35b6040513d5f823e3d90fd5b634e487b7160e01b5f52604160045260245ffd5b5f80fdfe60806040526004361015610011575f80fd5b5f3560e01c80632ea80826146106dc57806352917d1b1461069857806352ef6b2c146106695780635ab115a71461062557806365d375b3146105a557806367bb6a701461056157806370068fcf14610548578063870d48381461025957806387c3adb314610226578063a4b3ad35146101f7578063a9089235146101b2578063abc8b34614610183578063d82be56e1461011d5763f45469e7146100b3575f80fd5b34610119575f366003190112610119576100f96100ce610d1c565b6101156100d9610956565b6101076100e46109ab565b916040519586956060875260608701906108f1565b908582036020870152610707565b908382036040850152610744565b0390f35b5f80fd5b34610119576020366003190112610119576004356001600160401b0381116101195761014f60209136906004016108ab565b6040516101788161016a8582019486865260408301906108f1565b03601f19810183528261086d565b519020604051908152f35b34610119575f3660031901126101195761011561019e610d1c565b6040519182916020835260208301906108f1565b34610119576040366003190112610119576101cb610821565b506024356001600160401b038111610119576101eb9036906004016108ab565b50602060405160018152f35b34610119575f36600319011261011957610115610212610af7565b604051918291602083526020830190610780565b34610119576020366003190112610119576004356001600160401b0381116101195761019e6101159136906004016108ab565b34610119576020366003190112610119576004356001600160401b038111610119576102899036906004016108ab565b805181016020810191602081830312610119576020810151906001600160401b0382116101195701906040908290031261011957604051906102ca82610837565b60208101516001600160401b038111610119576020908201019083601f830112156101195781516102fa81610890565b94610308604051968761086d565b81865260208285010111610119576020815f9282604096018389015e860101528383520151906001600160a01b03821682036101195760200190815281516001600160401b038111610534575f516020610d535f395f51905f5254600181811c9116801561052a575b602082101461051657601f81116104a7575b50602092601f821160011461042e57928192935f92610423575b50508160011b915f199060031b1c1916175f516020610d535f395f51905f52555b517f552e522d4f9b6a3d443b47299f900b7b1bce2dacca532b0186b605495413451d80546001600160a01b0319166001600160a01b03929092169190911790555f7f552e522d4f9b6a3d443b47299f900b7b1bce2dacca532b0186b605495413451f55005b01519050838061039d565b601f198216935f516020610d535f395f51905f525f52805f20915f5b86811061048f5750836001959610610477575b505050811b015f516020610d535f395f51905f52556103be565b01515f1960f88460031b161c1916905583808061045d565b9192602060018192868501518155019401920161044a565b5f516020610d535f395f51905f525f527f0cdf796f053837afc636efaf40b085110f2fb6919a73eb6387627a34a3080789601f830160051c8101916020841061050c575b601f0160051c01905b8181106105015750610383565b5f81556001016104f4565b90915081906104eb565b634e487b7160e01b5f52602260045260245ffd5b90607f1690610371565b634e487b7160e01b5f52604160045260245ffd5b34610119576020366003190112610119576101eb610821565b34610119575f366003190112610119576040517f00000000000000000000000000000000000000000000000000000000000000006001600160a01b03168152602090f35b34610119575f36600319011261011957606060206040516105c581610837565b82815201526106126105d5610af7565b6101156105e0610956565b604051926105ed84610837565b8352602083019081526040519384936020855251604060208601526060850190610780565b9051838203601f19016040850152610707565b34610119575f366003190112610119576040517f00000000000000000000000000000000000000000000000000000000000000006001600160a01b03168152602090f35b34610119575f366003190112610119576101156106846109ab565b604051918291602083526020830190610744565b34610119575f366003190112610119576040517f00000000000000000000000000000000000000000000000000000000000000006001600160a01b03168152602090f35b34610119575f366003190112610119576101156106f7610956565b6040519182916020835260208301905b90602080835192838152019201905f5b8181106107245750505090565b82516001600160e01b031916845260209384019390920191600101610717565b90602080835192838152019201905f5b8181106107615750505090565b82516001600160a01b0316845260209384019390920191600101610754565b9080602083519182815201906020808260051b8501019401925f905b8282106107ab57505050505090565b808603601f19018452845180516001600160a01b0316875260208101519596949593949293919290600383101561080d5761080082606060406020959460019787809701520151918160408201520190610707565b970195019392019061079c565b634e487b7160e01b5f52602160045260245ffd5b600435906001600160a01b038216820361011957565b604081019081106001600160401b0382111761053457604052565b606081019081106001600160401b0382111761053457604052565b601f909101601f19168101906001600160401b0382119082101761053457604052565b6001600160401b03811161053457601f01601f191660200190565b81601f82011215610119578035906108c282610890565b926108d0604051948561086d565b8284526020838301011161011957815f926020809301838601378301015290565b805180835260209291819084018484015e5f828201840152601f01601f1916010190565b8051156109225760200190565b634e487b7160e01b5f52603260045260245ffd5b8051600110156109225760400190565b8051600210156109225760600190565b6040519061096560808361086d565b60038252606036602084013781633e39b1ab60e21b61098382610915565b5263053f888b60e51b61099582610936565b52631318341f60e21b906109a890610946565b52565b604051906109ba60808361086d565b600382526060366020840137817f00000000000000000000000000000000000000000000000000000000000000006001600160a01b03166109fa82610915565b527f00000000000000000000000000000000000000000000000000000000000000006001600160a01b0316610a2e82610936565b527f00000000000000000000000000000000000000000000000000000000000000006001600160a01b0316906109a890610946565b602081830312610119578051906001600160401b038211610119570181601f82011215610119578051916001600160401b038311610534578260051b916020830193610ab2604051958661086d565b845260208085019382010191821161011957602001915b818310610ad65750505090565b82516001600160e01b03198116810361011957815260209283019201610ac9565b60405190610b0660808361086d565b6003825260605f5b818110610cf257505060405163574a4cff60e01b815282907f00000000000000000000000000000000000000000000000000000000000000006001600160a01b0316905f81600481855afa908115610cb3575f91610cd8575b5060405191610b7583610852565b82525f60208301526040820152610b8b82610915565b52610b9581610915565b5060405163574a4cff60e01b81527f00000000000000000000000000000000000000000000000000000000000000006001600160a01b0316905f81600481855afa908115610cb3575f91610cbe575b5060405191610bf283610852565b82525f60208301526040820152610c0882610936565b52610c1281610936565b5060405163574a4cff60e01b8152907f00000000000000000000000000000000000000000000000000000000000000006001600160a01b03165f83600481845afa8015610cb357610c8e935f91610c91575b5060405191610c7283610852565b82525f60208301526040820152610c8882610946565b52610946565b50565b610cad91503d805f833e610ca5818361086d565b810190610a63565b5f610c64565b6040513d5f823e3d90fd5b610cd291503d805f833e610ca5818361086d565b5f610be4565b610cec91503d805f833e610ca5818361086d565b5f610b67565b602090604051610d0181610852565b5f81525f838201526060604082015282828701015201610b0e565b60405190610d2b60408361086d565b60188252775065726d697373696f6e6564477265657465724446506b6760401b602083015256fed32bbaeef0dc4ce0a1707655450e5e93886dfad6f521b6fb7c9b8f3a455fa265a264697066735822122090c4e46ad0e7cc9caef3a9b5aaa96489dbf93c8068beeac7974479ae3450d4fa64736f6c634300081e0033608080604052346015576106f2908161001a8239f35b5f80fdfe60806040526004361015610011575f80fd5b5f358060e01c9081632ea8082614610421578163368b87721461014157508063574a4cff146101125780635b6f4d01146100f7578063ce6d41de146100c85763f10d7a751461005e575f80fd5b346100c4575f3660031901126100c4576100a4610079610556565b6100c06100846104e1565b6100b261008f61050f565b9160405195869560608752606087019061049c565b90858203602087015261043c565b90838203604085015261043c565b0390f35b5f80fd5b346100c4575f3660031901126100c4576100c06100e36105c0565b60405191829160208352602083019061049c565b346100c4575f3660031901126100c4576100c06100e3610556565b346100c4575f3660031901126100c4576100c061012d61050f565b60405191829160208352602083019061043c565b346100c45760203660031901126100c457600435906001600160401b0382116100c457366023830112156100c45760048201356001600160401b0381116103c5576040519261019a601f8301601f191660200185610479565b81845236602483830101116100c457815f92602460209301838701378401015260405160208101906020825260156040820152746372616e652e6163636573732e6f70657261626c6560581b6060820152606081526101fa608082610479565b519020335f9081526020829052604090205460ff161591826103ec575b50506103d9577f33f9897216838d3426adfbb9dcb455323ae7e170a584880d835bc7327ad6137d6102606102496105c0565b61026e60405192839260408452604084019061049c565b82810360208401528561049c565b0390a180516001600160401b0381116103c5576102985f51602061067d5f395f51905f5254610588565b601f8111610369575b50602091601f82116001146102f1579181925f926102e6575b50508160011b915f199060031b1c1916175f51602061067d5f395f51905f52555b602060405160018152f35b0151905082806102ba565b601f198216925f51602061067d5f395f51905f525f52805f20915f5b85811061035157508360019510610339575b505050811b015f51602061067d5f395f51905f52556102db565b01515f1960f88460031b161c1916905582808061031f565b9192602060018192868501518155019401920161030d565b5f51602061067d5f395f51905f525f525f51602061069d5f395f51905f52601f830160051c810191602084106103bb575b601f0160051c01905b8181106103b057506102a1565b5f81556001016103a3565b909150819061039a565b634e487b7160e01b5f52604160045260245ffd5b633b63649d60e11b5f523360045260245ffd5b6001925063ffffffff60e01b165f520160205260405f2060018060a01b0333165f5260205260ff60405f205416158280610217565b346100c4575f3660031901126100c4576100c061012d6104e1565b90602080835192838152019201905f5b8181106104595750505090565b82516001600160e01b03191684526020938401939092019160010161044c565b601f909101601f19168101906001600160401b038211908210176103c557604052565b805180835260209291819084018484015e5f828201840152601f01601f1916010190565b8051156104cd5760200190565b634e487b7160e01b5f52603260045260245ffd5b604051906104f0604083610479565b6001825260203681840137633e39b1ab60e21b61050c836104c0565b52565b6040519061051e606083610479565b60028252604036602084013781636736a0ef60e11b61053c826104c0565b528051600110156104cd57604001631b45c3b960e11b9052565b60405190610565604083610479565b601482527313dc195c98589b1951dc99595d195c919858d95d60621b6020830152565b90600182811c921680156105b6575b60208310146105a257565b634e487b7160e01b5f52602260045260245ffd5b91607f1691610597565b604051905f825f51602061067d5f395f51905f5254916105df83610588565b808352926001811690811561065d5750600114610605575b61060392500383610479565b565b505f51602061067d5f395f51905f525f90815290915f51602061069d5f395f51905f525b818310610641575050906020610603928201016105f7565b6020919350806001915483858901015201910190918492610629565b6020925061060394915060ff191682840152151560051b8201016105f756fed32bbaeef0dc4ce0a1707655450e5e93886dfad6f521b6fb7c9b8f3a455fa2650cdf796f053837afc636efaf40b085110f2fb6919a73eb6387627a34a3080789a26469706673582212200b1ad4b90367dd7298c3aaf94e1c56378b7799e5d3297d67dcdb86ce3974574564736f6c634300081e00336080806040523460155761060a908161001a8239f35b5f80fdfe60806040526004361015610011575f80fd5b5f3560e01c80632ea8082614610355578063558a7297146102ac578063574a4cff1461027d5780635b6f4d011461024e5780636d70f7ae1461020b578063755dbe7c1461013d578063ea562a25146100db5763f10d7a7514610071575f80fd5b346100d7575f3660031901126100d7576100b761008c61050f565b6100d361009761046c565b6100c56100a261049a565b916040519586956060875260608701906103d9565b908582036020870152610370565b908382036040850152610370565b0390f35b5f80fd5b346100d75760403660031901126100d7576100f46103fd565b6100fc6103c3565b90600161010761058e565b019063ffffffff60e01b165f5260205260405f209060018060a01b03165f52602052602060ff60405f2054166040519015158152f35b346100d75760603660031901126100d7576101566103fd565b61015e6103c3565b604435908115158083036100d7577ff071216dc06459e77b915d1883909d92f41239172000b60261dfdc0351889569936101e760609461019c610548565b60016101a661058e565b936101af610548565b63ffffffff60e01b1693845f520160205260405f2060018060a01b0386165f5260205260405f209060ff801983541691151516179055565b6040519260018060a01b0316835260208301526040820152a1602060405160018152f35b346100d75760203660031901126100d7576102246103ad565b61022c61058e565b9060018060a01b03165f52602052602060ff60405f2054166040519015158152f35b346100d7575f3660031901126100d7576100d361026961050f565b6040519182916020835260208301906103d9565b346100d7575f3660031901126100d7576100d361029861049a565b604051918291602083526020830190610370565b346100d75760403660031901126100d7576102c56103ad565b602435801515918282036100d7577f26ba28058a3c072a70c8fd315037fe9b3957237cef5c61a9652a8da41c673daa92610335604093610303610548565b61030b61058e565b610313610548565b60018060a01b0385165f52602052845f209060ff801983541691151516179055565b82516001600160a01b0390921682526020820152a1602060405160018152f35b346100d7575f3660031901126100d7576100d361029861046c565b90602080835192838152019201905f5b81811061038d5750505090565b82516001600160e01b031916845260209384019390920191600101610380565b600435906001600160a01b03821682036100d757565b602435906001600160a01b03821682036100d757565b805180835260209291819084018484015e5f828201840152601f01601f1916010190565b600435906001600160e01b0319821682036100d757565b601f909101601f19168101906001600160401b0382119082101761043757604052565b634e487b7160e01b5f52604160045260245ffd5b8051156104585760200190565b634e487b7160e01b5f52603260045260245ffd5b6040519061047b604083610414565b600182526020368184013763053f888b60e51b6104978361044b565b52565b604051906104a960a083610414565b600482526080366020840137816336b87bd760e11b6104c78261044b565b528051600110156104585763ea562a2560e01b60408201528051600210156104585763558a729760e01b606082015280516003101561045857608001631d576f9f60e21b9052565b60408051919082016001600160401b0381118382101761043757604052600d82526c13dc195c98589b19519858d95d609a1b6020830152565b7f552e522d4f9b6a3d443b47299f900b7b1bce2dacca532b0186b605495413451d546001600160a01b0316330361057b57565b63245aecd360e01b5f523360045260245ffd5b60405160208101906020825260156040820152746372616e652e6163636573732e6f70657261626c6560581b6060820152606081526105ce608082610414565b5190209056fea264697066735822122061ef36d8a3ef94711d6d41ff9b9788152960308a53803d94ac58de1aff8c395a64736f6c634300081e0033608080604052346015576107f7908161001a8239f35b5f80fdfe6080806040526004361015610012575f80fd5b5f3560e01c9081630f9f2530146104f7575080631af1b0c4146104cb5780632ea80826146104b05780633c213957146103c7578063574a4cff146103985780635b6f4d0114610369578063737293e21461030d5780638da5cb5b146102d9578063b842e87f14610216578063c0b6f5611461013e578063e30c39781461010a5763f10d7a75146100a0575f80fd5b34610106575f366003190112610106576100e66100bb6106d4565b6101026100c66105d8565b6100f46100d1610602565b9160405195869560608752606087019061055a565b90858203602087015261051d565b90838203604085015261051d565b0390f35b5f80fd5b34610106575f366003190112610106575f5160206107425f395f51905f52546040516001600160a01b039091168152602090f35b34610106576020366003190112610106576004356001600160a01b03811690819003610106575f5160206107625f395f51905f52546001600160a01b031633819003610203575f5160206107a25f395f51905f525442018042116101ef575f5160206107825f395f51905f52555f5160206107425f395f51905f5280546001600160a01b031916831790557fb150023a879fd806e3599b6ca8ee3b60f0e360ab3846d128d67ebce1a391639a5f80a3005b634e487b7160e01b5f52601160045260245ffd5b63245aecd360e01b5f523360045260245ffd5b34610106575f366003190112610106575f5160206107425f395f51905f52546001600160a01b0316338190036102c6575f5160206107625f395f51905f5280546001600160a01b0319811683179091555f5160206107425f395f51905f5280546001600160a81b03191690555f5f5160206107825f395f51905f528190556001600160a01b03909116907f8be0079c531659141344cd1fd0a4f28419497f9722a3daafe3b4186f6b6457e09080a3005b63a7fa19b160e01b5f523360045260245ffd5b34610106575f366003190112610106575f5160206107625f395f51905f52546040516001600160a01b039091168152602090f35b34610106575f366003190112610106575f5160206107625f395f51905f52546001600160a01b03163303610203575f5160206107425f395f51905f5280546001600160a81b03191690555f5f5160206107825f395f51905f5255005b34610106575f366003190112610106576101026103846106d4565b60405191829160208352602083019061055a565b34610106575f366003190112610106576101026103b3610602565b60405191829160208352602083019061051d565b34610106576020366003190112610106576004356001600160a01b03811690819003610106575f5160206107625f395f51905f52546001600160a01b031633819003610203575f5160206107825f395f51905f525480421061049a57505f5160206107425f395f51905f52546001600160a01b03811692838103610488575060ff60a01b1916600160a01b175f5160206107425f395f51905f52557f646fe5eeb20d96ea45a9caafcb508854a2fb5660885ced7772e12a633c9745715f80a3005b63a7fa19b160e01b5f5260045260245ffd5b63d64ede7360e01b5f524260045260245260445ffd5b34610106575f366003190112610106576101026103b36105d8565b34610106575f3660031901126101065760206104e5610715565b6040516001600160a01b039091168152f35b34610106575f366003190112610106576020905f5160206107a25f395f51905f52548152f35b90602080835192838152019201905f5b81811061053a5750505090565b82516001600160e01b03191684526020938401939092019160010161052d565b805180835260209291819084018484015e5f828201840152601f01601f1916010190565b6040519190601f01601f191682016001600160401b038111838210176105a357604052565b634e487b7160e01b5f52604160045260245ffd5b8051156105c45760200190565b634e487b7160e01b5f52603260045260245ffd5b6105e2604061057e565b600181529060203681840137631318341f60e21b6105ff836105b7565b52565b6101209061060f8261057e565b6008815291601f19013660208401378163c0b6f56160e01b610630826105b7565b528051600110156105c457633c21395760e01b60408201528051600210156105c4576339b949f160e11b60608201528051600310156105c45763b842e87f60e01b60808201528051600410156105c457638da5cb5b60e01b60a08201528051600510156105c457631c61872f60e31b60c08201528051600610156105c4576306bc6c3160e21b60e08201528051600710156105c4576101000162f9f25360e41b9052565b60408051919082016001600160401b038111838210176105a3576040526015825274135d5b1d1a54dd195c13dddb98589b19519858d95d605a1b6020830152565b5f5160206107425f395f51905f525460ff8160a01c161561073c576001600160a01b031690565b505f9056fe552e522d4f9b6a3d443b47299f900b7b1bce2dacca532b0186b605495413451e552e522d4f9b6a3d443b47299f900b7b1bce2dacca532b0186b605495413451d552e522d4f9b6a3d443b47299f900b7b1bce2dacca532b0186b6054954134520552e522d4f9b6a3d443b47299f900b7b1bce2dacca532b0186b605495413451fa26469706673582212201d4736587f44c02caa24d4b9ef489cff693c4188ca8b3907aee8feeaba25c7bd64736f6c634300081e0033","linkReferences":{}},"methodIdentifiers":{"MULTI_STEP_OWNABLE_FACET()":"52917d1b","OPERABLE_FACET()":"67bb6a70","OPERABLE_GREETER_FACET()":"5ab115a7","calcSalt(bytes)":"d82be56e","diamondConfig()":"65d375b3","facetAddresses()":"52ef6b2c","facetCuts()":"a4b3ad35","facetInterfaces()":"2ea80826","initAccount(bytes)":"870d4838","packageMetadata()":"f45469e7","packageName()":"abc8b346","postDeploy(address)":"70068fcf","processArgs(bytes)":"87c3adb3","updatePkg(address,bytes)":"a9089235"},"id":122}