{"abi":[{"type":"constructor","inputs":[{"name":"owner_","type":"address","internalType":"address"}],"stateMutability":"nonpayable"},{"type":"function","name":"acceptOwnershipTransfer","inputs":[],"outputs":[],"stateMutability":"nonpayable"},{"type":"function","name":"allFacets","inputs":[],"outputs":[{"name":"facetAddresses","type":"address[]","internalType":"address[]"}],"stateMutability":"view"},{"type":"function","name":"allPackages","inputs":[],"outputs":[{"name":"packages","type":"address[]","internalType":"address[]"}],"stateMutability":"view"},{"type":"function","name":"cancelPendingOwnershipTransfer","inputs":[],"outputs":[],"stateMutability":"nonpayable"},{"type":"function","name":"confirmOwnershipTransfer","inputs":[{"name":"pendingOwner_","type":"address","internalType":"address"}],"outputs":[],"stateMutability":"nonpayable"},{"type":"function","name":"create3","inputs":[{"name":"initCode","type":"bytes","internalType":"bytes"},{"name":"salt","type":"bytes32","internalType":"bytes32"}],"outputs":[{"name":"proxy","type":"address","internalType":"address"}],"stateMutability":"nonpayable"},{"type":"function","name":"create3WithArgs","inputs":[{"name":"initCode","type":"bytes","internalType":"bytes"},{"name":"initData_","type":"bytes","internalType":"bytes"},{"name":"salt","type":"bytes32","internalType":"bytes32"}],"outputs":[{"name":"proxy","type":"address","internalType":"address"}],"stateMutability":"nonpayable"},{"type":"function","name":"deployFacet","inputs":[{"name":"initCode","type":"bytes","internalType":"bytes"},{"name":"salt","type":"bytes32","internalType":"bytes32"}],"outputs":[{"name":"facet","type":"address","internalType":"contract IFacet"}],"stateMutability":"nonpayable"},{"type":"function","name":"deployFacetWithArgs","inputs":[{"name":"initCode","type":"bytes","internalType":"bytes"},{"name":"initArgs","type":"bytes","internalType":"bytes"},{"name":"salt","type":"bytes32","internalType":"bytes32"}],"outputs":[{"name":"facet","type":"address","internalType":"contract IFacet"}],"stateMutability":"nonpayable"},{"type":"function","name":"deployPackage","inputs":[{"name":"initCode","type":"bytes","internalType":"bytes"},{"name":"salt","type":"bytes32","internalType":"bytes32"}],"outputs":[{"name":"package","type":"address","internalType":"contract IDiamondFactoryPackage"}],"stateMutability":"nonpayable"},{"type":"function","name":"deployPackageWithArgs","inputs":[{"name":"initCode","type":"bytes","internalType":"bytes"},{"name":"constructorArgs","type":"bytes","internalType":"bytes"},{"name":"salt","type":"bytes32","internalType":"bytes32"}],"outputs":[{"name":"package","type":"address","internalType":"contract IDiamondFactoryPackage"}],"stateMutability":"nonpayable"},{"type":"function","name":"diamondPackageFactory","inputs":[],"outputs":[{"name":"","type":"address","internalType":"contract IDiamondPackageCallBackFactory"}],"stateMutability":"view"},{"type":"function","name":"facetsOfFunction","inputs":[{"name":"functionSelector","type":"bytes4","internalType":"bytes4"}],"outputs":[{"name":"facetAddresses","type":"address[]","internalType":"address[]"}],"stateMutability":"view"},{"type":"function","name":"facetsOfInterface","inputs":[{"name":"interfaceId","type":"bytes4","internalType":"bytes4"}],"outputs":[{"name":"facetAddresses","type":"address[]","internalType":"address[]"}],"stateMutability":"view"},{"type":"function","name":"facetsOfName","inputs":[{"name":"name","type":"string","internalType":"string"}],"outputs":[{"name":"facetAddresses","type":"address[]","internalType":"address[]"}],"stateMutability":"view"},{"type":"function","name":"facetsOfPackage","inputs":[{"name":"package","type":"address","internalType":"contract IDiamondFactoryPackage"},{"name":"","type":"uint256","internalType":"uint256"}],"outputs":[{"name":"facets","type":"address","internalType":"address"}],"stateMutability":"view"},{"type":"function","name":"functionsOfFacet","inputs":[{"name":"facet","type":"address","internalType":"contract IFacet"},{"name":"","type":"uint256","internalType":"uint256"}],"outputs":[{"name":"functions","type":"bytes4","internalType":"bytes4"}],"stateMutability":"view"},{"type":"function","name":"getOwnershipTransferBuffer","inputs":[],"outputs":[{"name":"","type":"uint256","internalType":"uint256"}],"stateMutability":"view"},{"type":"function","name":"initiateOwnershipTransfer","inputs":[{"name":"pendingOwner_","type":"address","internalType":"address"}],"outputs":[],"stateMutability":"nonpayable"},{"type":"function","name":"interfacesOfFacet","inputs":[{"name":"facet","type":"address","internalType":"contract IFacet"},{"name":"","type":"uint256","internalType":"uint256"}],"outputs":[{"name":"interfaces","type":"bytes4","internalType":"bytes4"}],"stateMutability":"view"},{"type":"function","name":"interfacesOfPackage","inputs":[{"name":"package","type":"address","internalType":"contract IDiamondFactoryPackage"},{"name":"","type":"uint256","internalType":"uint256"}],"outputs":[{"name":"interfaces","type":"bytes4","internalType":"bytes4"}],"stateMutability":"view"},{"type":"function","name":"isOperator","inputs":[{"name":"query","type":"address","internalType":"address"}],"outputs":[{"name":"","type":"bool","internalType":"bool"}],"stateMutability":"view"},{"type":"function","name":"isOperatorFor","inputs":[{"name":"func","type":"bytes4","internalType":"bytes4"},{"name":"query","type":"address","internalType":"address"}],"outputs":[{"name":"","type":"bool","internalType":"bool"}],"stateMutability":"view"},{"type":"function","name":"nameOfFacet","inputs":[{"name":"facet","type":"address","internalType":"contract IFacet"}],"outputs":[{"name":"name","type":"string","internalType":"string"}],"stateMutability":"view"},{"type":"function","name":"nameOfPackage","inputs":[{"name":"package","type":"address","internalType":"contract IDiamondFactoryPackage"}],"outputs":[{"name":"name","type":"string","internalType":"string"}],"stateMutability":"view"},{"type":"function","name":"owner","inputs":[],"outputs":[{"name":"","type":"address","internalType":"address"}],"stateMutability":"view"},{"type":"function","name":"packagesByFacet","inputs":[{"name":"facet","type":"address","internalType":"contract IFacet"}],"outputs":[{"name":"packages","type":"address[]","internalType":"address[]"}],"stateMutability":"view"},{"type":"function","name":"packagesByInterface","inputs":[{"name":"interfaceId","type":"bytes4","internalType":"bytes4"}],"outputs":[{"name":"packages","type":"address[]","internalType":"address[]"}],"stateMutability":"view"},{"type":"function","name":"packagesByName","inputs":[{"name":"name","type":"string","internalType":"string"}],"outputs":[{"name":"packages","type":"address[]","internalType":"address[]"}],"stateMutability":"view"},{"type":"function","name":"pendingOwner","inputs":[],"outputs":[{"name":"","type":"address","internalType":"address"}],"stateMutability":"view"},{"type":"function","name":"preConfirmedOwner","inputs":[],"outputs":[{"name":"","type":"address","internalType":"address"}],"stateMutability":"view"},{"type":"function","name":"registerFacet","inputs":[{"name":"facet","type":"address","internalType":"contract IFacet"},{"name":"name","type":"string","internalType":"string"},{"name":"interfaces","type":"bytes4[]","internalType":"bytes4[]"},{"name":"functions","type":"bytes4[]","internalType":"bytes4[]"}],"outputs":[{"name":"","type":"bool","internalType":"bool"}],"stateMutability":"nonpayable"},{"type":"function","name":"registerPackage","inputs":[{"name":"package","type":"address","internalType":"contract IDiamondFactoryPackage"},{"name":"name","type":"string","internalType":"string"},{"name":"interfaces","type":"bytes4[]","internalType":"bytes4[]"},{"name":"facets","type":"address[]","internalType":"address[]"}],"outputs":[{"name":"","type":"bool","internalType":"bool"}],"stateMutability":"nonpayable"},{"type":"function","name":"setDiamondPackageFactory","inputs":[{"name":"diamondPackageFactory_","type":"address","internalType":"contract IDiamondPackageCallBackFactory"}],"outputs":[{"name":"","type":"bool","internalType":"bool"}],"stateMutability":"nonpayable"},{"type":"function","name":"setOperator","inputs":[{"name":"operator","type":"address","internalType":"address"},{"name":"status","type":"bool","internalType":"bool"}],"outputs":[{"name":"","type":"bool","internalType":"bool"}],"stateMutability":"nonpayable"},{"type":"function","name":"setOperatorFor","inputs":[{"name":"func","type":"bytes4","internalType":"bytes4"},{"name":"newOperator","type":"address","internalType":"address"},{"name":"approval","type":"bool","internalType":"bool"}],"outputs":[{"name":"","type":"bool","internalType":"bool"}],"stateMutability":"nonpayable"},{"type":"event","name":"NewFunctionOperatorStatus","inputs":[{"name":"newOperator","type":"address","indexed":false,"internalType":"address"},{"name":"func","type":"bytes4","indexed":false,"internalType":"bytes4"},{"name":"status","type":"bool","indexed":false,"internalType":"bool"}],"anonymous":false},{"type":"event","name":"NewGlobalOperatorStatus","inputs":[{"name":"newOperator","type":"address","indexed":false,"internalType":"address"},{"name":"status","type":"bool","indexed":false,"internalType":"bool"}],"anonymous":false},{"type":"event","name":"OwnershipTransferConfirmed","inputs":[{"name":"prevOwner","type":"address","indexed":true,"internalType":"address"},{"name":"newOwner","type":"address","indexed":true,"internalType":"address"}],"anonymous":false},{"type":"event","name":"OwnershipTransferInitiated","inputs":[{"name":"prevOwner","type":"address","indexed":true,"internalType":"address"},{"name":"newOwner","type":"address","indexed":true,"internalType":"address"}],"anonymous":false},{"type":"event","name":"OwnershipTransferred","inputs":[{"name":"prevOwner","type":"address","indexed":true,"internalType":"address"},{"name":"newOwner","type":"address","indexed":true,"internalType":"address"}],"anonymous":false},{"type":"error","name":"BufferPeriodNotElapsed","inputs":[{"name":"currentTime","type":"uint256","internalType":"uint256"},{"name":"bufferEndTime","type":"uint256","internalType":"uint256"}]},{"type":"error","name":"ErrorCreatingContract","inputs":[]},{"type":"error","name":"ErrorCreatingProxy","inputs":[]},{"type":"error","name":"NotOperator","inputs":[{"name":"caller","type":"address","internalType":"address"}]},{"type":"error","name":"NotOwner","inputs":[{"name":"caller","type":"address","internalType":"address"}]},{"type":"error","name":"NotPending","inputs":[{"name":"caller","type":"address","internalType":"address"}]},{"type":"error","name":"TargetAlreadyExists","inputs":[]}],"bytecode":{"object":"0x60803460b557601f61249438819003918201601f19168301916001600160401b0383118484101760b95780849260209460405283398101031260b557516001600160a01b0381169081900360b5577f552e522d4f9b6a3d443b47299f900b7b1bce2dacca532b0186b605495413451d80546001600160a01b0319169190911790556203f4807f552e522d4f9b6a3d443b47299f900b7b1bce2dacca532b0186b605495413451f556040516123c690816100ce8239f35b5f80fd5b634e487b7160e01b5f52604160045260245ffdfe60806040526004361015610011575f80fd5b5f3560e01c80630d20b70a146102545780630f9f25301461024f5780630fe96d131461024a57806315fe5788146102455780631af1b0c4146102405780631cdca5df1461023b5780631f7fe4db14610236578063383f5adf146102315780633c2139571461022c5780634e097bd01461022757806350e4fe7514610222578063558a72971461021d57806357c7cde11461021857806363f296d1146102135780636d70f7ae1461020e57806372ad9d5414610209578063737293e214610204578063755dbe7c146101ff5780637ff8bd87146101fa5780638da5cb5b146101f55780639e0eca2c146101f0578063a73e3131146101eb578063a7b62a7f146101e6578063ad0619af146101e1578063b2da46ef146101dc578063b842e87f146101d7578063b92811c5146101d2578063ba63b814146101cd578063c0b6f561146101c8578063cb08be22146101c3578063dc715dc1146101be578063e30c3978146101b9578063e3ff70d6146101b4578063ea562a25146101af578063ec5d1493146101aa5763ede8016b146101a5575f80fd5b61154d565b611536565b6114f8565b6114bd565b611489565b611440565b6113bf565b6112ef565b61126d565b6111f0565b61112b565b6110a9565b611095565b61104f565b610f6d565b610f08565b610ebf565b610e78565b610cc7565b610c53565b610c0a565b610b7e565b610b22565b610a6e565b6109c8565b610943565b6108c6565b61078d565b610721565b610674565b610624565b6105f8565b610542565b61047e565b610455565b6103b5565b6001600160a01b031690565b6001600160a01b0381160361027657565b5f80fd5b634e487b7160e01b5f52604160045260245ffd5b601f909101601f19168101906001600160401b038211908210176102b157604052565b61027a565b6001600160401b0381116102b157601f01601f191660200190565b9291926102dd826102b6565b916102eb604051938461028e565b829481845281830111610276578281602093845f960137010152565b9080601f8301121561027657816020610322933591016102d1565b90565b6001600160401b0381116102b15760051b60200190565b6001600160e01b031981160361027657565b9080601f8301121561027657813561036581610325565b92610373604051948561028e565b81845260208085019260051b82010192831161027657602001905b82821061039b5750505090565b6020809183356103aa8161033c565b81520191019061038e565b34610276576080366003190112610276576004356103d281610265565b6024356001600160401b038111610276576103f1903690600401610307565b906044356001600160401b0381116102765761041190369060040161034e565b60643591906001600160401b038311610276576104519361043961043f94369060040161034e565b92611596565b60405190151581529081906020820190565b0390f35b34610276575f3660031901126102765760205f5160206123715f395f51905f5254604051908152f35b34610276575f366003190112610276575f546040516001600160a01b039091168152602090f35b9181601f84011215610276578235916001600160401b038311610276576020838186019501011161027657565b602060031982011261027657600435906001600160401b038211610276576104fc916004016104a5565b9091565b60206040818301928281528451809452019201905f5b8181106105235750505090565b82516001600160a01b0316845260209384019390920191600101610516565b3461027657610550366104d2565b61058d6060604051838194602083019660208852816040850152848401375f838284010152601f801991011681010301601f19810183528261028e565b5190205f526007602052600160405f20016040519081602082549182815201915f5260205f20905f5b8181106105d957610451856105cd8187038261028e565b60405191829182610500565b82546001600160a01b03168452602090930192600192830192016105b6565b34610276575f366003190112610276576020610612611f4a565b6040516001600160a01b039091168152f35b346102765760203660031901126102765760043561064181610265565b610649611b8a565b5f80546001600160a01b0319166001600160a01b039290921691909117905560405160018152602090f35b34610276576060366003190112610276576004356001600160401b038111610276576106a4903690600401610307565b6024356001600160401b038111610276576020916106c9610612923690600401610307565b604435916115af565b9060018060a01b03165f5260205260405f2090565b634e487b7160e01b5f52603260045260245ffd5b919091805483101561071c575f52601c60205f208360031c019260021b1690565b6106e7565b346102765760403660031901126102765760043561073e81610265565b6001600160a01b03165f9081526005602052604090208054602435908110156102765761076a916106fb565b90549060031b1c60e01b6040518091602082019063ffffffff60e01b1682520390f35b34610276576020366003190112610276576004356107aa81610265565b5f5160206123315f395f51905f52546001600160a01b03906107cb90610259565b16908133036108b3575f5160206123515f395f51905f525480421061089d575061080a6108055f5160206123115f395f51905f5254610259565b610259565b6001600160a01b0382160361088257505f5160206123115f395f51905f52805460ff60a01b1916600160a01b1790555f5160206123115f395f51905f52546001600160a01b039061085a90610259565b16907f646fe5eeb20d96ea45a9caafcb508854a2fb5660885ced7772e12a633c9745715f80a3005b63a7fa19b160e01b5f526001600160a01b031660045260245ffd5b63d64ede7360e01b5f524260045260245260445ffd5b63245aecd360e01b5f523360045260245ffd5b34610276575f36600319011261027657604051600b80548083525f91825260208301917f0175b7a638427703f0dbe7bb9bbf987a2551717b34e79f33b5b1008d1fa01db991905b81811061092457610451856105cd8187038261028e565b82546001600160a01b031684526020909301926001928301920161090d565b346102765760016020610955366104d2565b91908260405193849283378101600c815203019020016040519081602082549182815201915f5260205f20905f5b81811061099a57610451856105cd8187038261028e565b82546001600160a01b0316845260209093019260019283019201610983565b60443590811515820361027657565b34610276576040366003190112610276576004356109e581610265565b6024358015158103610276577f26ba28058a3c072a70c8fd315037fe9b3957237cef5c61a9652a8da41c673daa91604091610a1e611b8a565b610a4c81610a3b84610a2e611d7f565b610a36611b8a565b6106d2565b9060ff801983541691151516179055565b82516001600160a01b03909216825215156020820152a1602060405160018152f35b3461027657602036600319011261027657600435610a8b8161033c565b63ffffffff60e01b165f52600d602052600160405f20016040519081602082549182815201915f5260205f20905f5b818110610ad157610451856105cd8187038261028e565b82546001600160a01b0316845260209093019260019283019201610aba565b604060031982011261027657600435906001600160401b03821161027657610b1a916004016104a5565b909160243590565b3461027657610b48610b5f610b3636610af0565b939190610b41611703565b36916102d1565b91610b51611703565b6001600160a01b03926116a1565b16610b698161202e565b6040516001600160a01b039091168152602090f35b3461027657602036600319011261027657602060ff610baa600435610ba281610265565b610a36611d7f565b54166040519015158152f35b6060600319820112610276576004356001600160401b0381116102765781610be0916004016104a5565b90929091602435906001600160401b03821161027657610c02916004016104a5565b909160443590565b3461027657610c30610c49610c43610c2136610bb6565b9492610b419792949197611703565b6001600160a01b039590923691906102d1565b906115af565b16610b69816120f9565b34610276575f366003190112610276575f5160206123315f395f51905f52546001600160a01b03163303610cb457610c89611dc5565b5f5160206123115f395f51905f52805460ff60a01b191690555f5f5160206123515f395f51905f5255005b63245aecd360e01b5f523360045260245ffd5b34610276576060366003190112610276577ff071216dc06459e77b915d1883909d92f41239172000b60261dfdc03518895696060600435610d078161033c565b60243590610d1482610265565b610d1c6109b9565b90610d25611b8a565b610d4982610a3b85610a36856001610d3b611d7f565b610d43611b8a565b01611677565b6040519260018060a01b0316835263ffffffff60e01b16602083015215156040820152a160405160018152602090f35b90600182811c92168015610da7575b6020831014610d9357565b634e487b7160e01b5f52602260045260245ffd5b91607f1691610d88565b60405190815f825492610dc384610d79565b8084529360018116908115610e2c5750600114610de8575b506103229250038261028e565b90505f9291925260205f20905f915b818310610e10575050906020610322928201015f610ddb565b6020919350806001915483858801015201910190918392610df7565b90506020925061032294915060ff191682840152151560051b8201015f610ddb565b602060409281835280519182918282860152018484015e5f828201840152601f01601f1916010190565b3461027657602036600319011261027657600435610e9581610265565b60018060a01b03165f526004602052610451610eb360405f20610db1565b60405191829182610e4e565b34610276575f366003190112610276575f5160206123315f395f51905f52546040516001600160a01b039091168152602090f35b805482101561071c575f5260205f2001905f90565b3461027657604036600319011261027657600435610f2581610265565b6001600160a01b03165f90815260066020526040902080546024359081101561027657610f5191610ef3565b905460405160039290921b1c6001600160a01b03168152602090f35b3461027657608036600319011261027657600435610f8a81610265565b6024356001600160401b03811161027657610fa9903690600401610307565b6044356001600160401b03811161027657610fc890369060040161034e565b606435916001600160401b038311610276573660238401121561027657826004013593610ff485610325565b93611002604051958661028e565b8585526024602086019660051b8201019036821161027657602401955b8187106110355761045161043f8787878761168d565b60208091883561104481610265565b81520196019561101f565b34610276576040366003190112610276576004356001600160401b038111610276576106126110846020923690600401610307565b60243590611090611703565b6116a1565b3461027657610b48610c49610b3636610af0565b34610276576020366003190112610276576004356110c68161033c565b63ffffffff60e01b165f526009602052600160405f20016040519081602082549182815201915f5260205f20905f5b81811061110c57610451856105cd8187038261028e565b82546001600160a01b03168452602090930192600192830192016110f5565b34610276575f366003190112610276575f5160206123115f395f51905f52546001600160a01b0316338190036111dd575f5160206123315f395f51905f5280546001600160a01b038381166001600160a01b03198316179092551661118e611dc5565b5f5160206123115f395f51905f52805460ff60a01b191690555f5f5160206123515f395f51905f52557f8be0079c531659141344cd1fd0a4f28419497f9722a3daafe3b4186f6b6457e05f80a3005b63a7fa19b160e01b5f523360045260245ffd5b34610276575f36600319011261027657604051601080548083525f91825260208301917f1b6847dc741a1b0cd08d278845f9d819d87b734759afb55fe2de5cb82a9ae67291905b81811061124e57610451856105cd8187038261028e565b82546001600160a01b0316845260209093019260019283019201611237565b346102765760203660031901126102765760043561128a8161033c565b63ffffffff60e01b165f526008602052600160405f20016040519081602082549182815201915f5260205f20905f5b8181106112d057610451856105cd8187038261028e565b82546001600160a01b03168452602090930192600192830192016112b9565b346102765760203660031901126102765760043561130c81610265565b5f5160206123315f395f51905f52546001600160a01b03169033829003610cb4575f5160206123715f395f51905f525442018042116113ab575f5160206123515f395f51905f52555f5160206123115f395f51905f5280546001600160a01b0319166001600160a01b0383161790556001600160a01b0316907fb150023a879fd806e3599b6ca8ee3b60f0e360ab3846d128d67ebce1a391639a5f80a3005b634e487b7160e01b5f52601160045260245ffd5b34610276576020366003190112610276576004356113dc81610265565b60018060a01b03165f52600e602052600160405f20016040519081602082549182815201915f5260205f20905f5b81811061142157610451856105cd8187038261028e565b82546001600160a01b031684526020909301926001928301920161140a565b346102765760403660031901126102765760043561145d81610265565b6001600160a01b03165f9081526003602052604090208054602435908110156102765761076a916106fb565b34610276575f366003190112610276575f5160206123115f395f51905f52546040516001600160a01b039091168152602090f35b34610276576020366003190112610276576004356114da81610265565b60018060a01b03165f526001602052610451610eb360405f20610db1565b3461027657604036600319011261027657602060ff610baa60043561151c8161033c565b610a366024359161152c83610265565b6001610d43611d7f565b3461027657610c30610b5f610c43610c2136610bb6565b346102765760403660031901126102765760043561156a81610265565b6001600160a01b03165f9081526002602052604090208054602435908110156102765761076a916106fb565b906115aa9392916115a5611703565b611a36565b600190565b906115e76115d9916115bf611703565b6040519283916115d3602084018097611baa565b90611baa565b03601f19810183528261028e565b6115ef61221e565b92611602816115fd30610259565b61224c565b93843b611668576020815191015ff56001600160a01b03811615611659575f9283809351925af16116316122e1565b50158015611650575b6116415790565b6353de54b960e01b5f5260045ffd5b50803b1561163a565b63bbd2fe8760e01b5f5260045ffd5b63cd43efa160e01b5f5260045ffd5b9063ffffffff60e01b165f5260205260405f2090565b906115aa93929161169c611703565b611c55565b6116ab823061224c565b803b6116fd57506116ba61221e565b916116c8816115fd30610259565b92833b611668576020815191015ff56001600160a01b0381161561165957815f92918360208194519301915af16116316122e1565b91505090565b61170b611d7f565b5f5160206123315f395f51905f52546001600160a01b0316331415908161177b575b8161174f575b5061173a57565b633b63649d60e11b5f90815233600452602490fd5b60ff9150611772903390610a36905f356001600160e01b03191690600101611677565b5416155f611733565b905060ff61178933836106d2565b5416159061172d565b81811061179d575050565b5f8155600101611792565b9190601f81116117b757505050565b6117e1925f5260205f20906020601f840160051c830193106117e3575b601f0160051c0190611792565b565b90915081906117d4565b81519192916001600160401b0381116102b1576118148161180e8454610d79565b846117a8565b6020601f82116001146118535781906118449394955f92611848575b50508160011b915f199060031b1c19161790565b9055565b015190505f80611830565b601f19821690611866845f5260205f2090565b915f5b8181106118a057509583600195969710611888575b505050811b019055565b01515f1960f88460031b161c191690555f808061187e565b9192602060018192868b015181550194019201611869565b90600160401b81116102b15781548183558082106118d557505050565b6117e1925f52600760205f2091601c82850160031c84019460021b1680611903575b500160031c0190611792565b5f198501908154905f199060200360031b1c1690555f6118f7565b9063ffffffff809160031b9316831b921b19161790565b815190916001600160401b0382116102b15760206119629161195784866118b8565b01925f5260205f2090565b8160031c915f5b8381106119d857506007198116900380611984575b50505050565b925f935f5b81811061199e5750505001555f80808061197e565b90919460206119ce6001926119c36119bd8a5163ffffffff60e01b1690565b60e01c90565b908560021b9061191e565b9601929101611989565b5f5f5b600881106119f0575083820155600101611969565b95906020611a19600192611a0e6119bd865163ffffffff60e01b1690565b908a60021b9061191e565b920196016119db565b805182101561071c5760209160051b010190565b611ad49491611aec611ade6115d9611af194611a6b85611a668360018060a01b03165f52600160205260405f2090565b6117ed565b6001600160a01b0381165f908152600260205260409020611a8d908990611935565b6001600160a01b0381165f908152600360205260409020611aaf908a90611935565b6001600160a01b0316988994611ac486611e06565b5060405192839160208301610e4e565b6020815191012090565b5f52600760205260405f2090565b611ef1565b505f5b8251811015611b405780611b3986611aec611b22611b1460019689611a22565b516001600160e01b03191690565b63ffffffff60e01b165f52600860205260405f2090565b5001611af4565b509190505f5b8151811015611b845780611b7d85611aec611b66611b1460019688611a22565b63ffffffff60e01b165f52600960205260405f2090565b5001611b46565b50509050565b5f5160206123315f395f51905f52546001600160a01b03163303610cb457565b805191908290602001825e015f815290565b8151916001600160401b0383116102b157600160401b83116102b1576020908254848455808510611c1d575b5001905f5260205f205f5b838110611c005750505050565b82516001600160a01b031681830155602090920191600101611bf3565b611c3290845f5285845f209182019101611792565b5f611be8565b6020611c4a9160405192838092611baa565b600c81520301902090565b91939290611cc7611cda91611c7e81611a668760018060a01b03165f52600460205260405f2090565b6001600160a01b0385165f908152600560205260409020611ca0908890611935565b6001600160a01b0385165f908152600660205260409020611cc2908590611bbc565b611c38565b6001600160a01b03909316928390611ef1565b505f5b8451811015611d1b5780611d1484611aec611cfd611b146001968b611a22565b63ffffffff60e01b165f52600d60205260405f2090565b5001611cdd565b5092505f5b8351811015611d705780611d6983611aec611d50610805611d436001978b611a22565b516001600160a01b031690565b6001600160a01b03165f908152600e6020526040902090565b5001611d20565b50611d7c919250611e7c565b50565b60405160208101906020825260156040820152746372616e652e6163636573732e6f70657261626c6560581b606082015260608152611dbf60808261028e565b51902090565b5f5160206123115f395f51905f5280546001600160a01b0319169055565b80546001600160a01b0360039390931b83811b199091169290931690921b179055565b6001600160a01b0381165f908152600a602052604090205415611e2a575b50600190565b600b54600160401b8110156102b15760018101600b55600b5481101561071c57815f611e5e92600b82526020822001611de3565b600b549060018060a01b03165f52600a60205260405f20555f611e24565b6001600160a01b0381165f908152600f602052604090205415611e9f5750600190565b601054600160401b8110156102b1576001810160105560105481101561071c57815f611ed392601082526020822001611de3565b6010549060018060a01b03165f52600f60205260405f20555f611e24565b90611efc81836106d2565b5415611f0a575b5050600190565b6001820180549190600160401b8310156102b157611f3b82611f35856001611f429701855584610ef3565b90611de3565b54926106d2565b555f80611f03565b5f5160206123115f395f51905f525460ff8160a01c1615611f71576001600160a01b031690565b505f90565b81601f8201121561027657805190611f8d826102b6565b92611f9b604051948561028e565b8284526020838301011161027657815f9260208093018386015e8301015290565b9080601f83011215610276578151611fd381610325565b92611fe1604051948561028e565b81845260208085019260051b82010192831161027657602001905b8282106120095750505090565b6020809183516120188161033c565b815201910190611ffc565b6040513d5f823e3d90fd5b60405163f10d7a7560e01b8152905f826004816001600160a01b0385165afa9081156120f4575f5f915f93612068575b6117e19450611a36565b925050503d805f843e61207b818461028e565b8201916060818403126102765780516001600160401b03811161027657836120a4918301611f76565b60208201519091906001600160401b03811161027657846120c6918301611fbc565b6040820151949091906001600160401b038611610276576117e1956120eb9201611fbc565b9190919261205e565b612023565b60405163f45469e760e01b815291905f836004816001600160a01b0385165afa9081156120f4575f5f915f93612135575b6117e1949550611c55565b925050503d805f853e612148818561028e565b8301926060818503126102765780516001600160401b0381116102765784612171918301611f76565b60208201519091906001600160401b0381116102765785612193918301611fbc565b604082015190916001600160401b03821161027657019185601f84011215610276578251956121c187610325565b936121cf604051958661028e565b87855260208086019860051b82010191821161027657602001965b8188106122045750506117e194955090919285945061212a565b60208091895161221381610265565b8152019701966121ea565b6040519061222d60408361028e565b601082526f67363d3d37363d34f03d5260086018f360801b6020830152565b6103229161225861221e565b6020815191012060405191602083019360ff60f81b855260018060601b03199060601b166021840152603583015260558201526055815261229a60758261028e565b5190206040516135a560f21b6020820190815260609290921b6001600160601b0319166022820152600160f81b60368201526122d981603781016115d9565b519020610259565b3d1561230b573d906122f2826102b6565b91612300604051938461028e565b82523d5f602084013e565b60609056fe552e522d4f9b6a3d443b47299f900b7b1bce2dacca532b0186b605495413451e552e522d4f9b6a3d443b47299f900b7b1bce2dacca532b0186b605495413451d552e522d4f9b6a3d443b47299f900b7b1bce2dacca532b0186b6054954134520552e522d4f9b6a3d443b47299f900b7b1bce2dacca532b0186b605495413451fa264697066735822122042ab0324294afe63f7e248d231d54784a8afe0989fe91d3b10320c0786b90e5f64736f6c634300081e0033","linkReferences":{}},"methodIdentifiers":{"acceptOwnershipTransfer()":"b842e87f","allFacets()":"4e097bd0","allPackages()":"b92811c5","cancelPendingOwnershipTransfer()":"737293e2","confirmOwnershipTransfer(address)":"3c213957","create3(bytes,bytes32)":"a7b62a7f","create3WithArgs(bytes,bytes,bytes32)":"1f7fe4db","deployFacet(bytes,bytes32)":"63f296d1","deployFacetWithArgs(bytes,bytes,bytes32)":"ec5d1493","deployPackage(bytes,bytes32)":"ad0619af","deployPackageWithArgs(bytes,bytes,bytes32)":"72ad9d54","diamondPackageFactory()":"0fe96d13","facetsOfFunction(bytes4)":"b2da46ef","facetsOfInterface(bytes4)":"ba63b814","facetsOfName(string)":"15fe5788","facetsOfPackage(address,uint256)":"9e0eca2c","functionsOfFacet(address,uint256)":"dc715dc1","getOwnershipTransferBuffer()":"0f9f2530","initiateOwnershipTransfer(address)":"c0b6f561","interfacesOfFacet(address,uint256)":"ede8016b","interfacesOfPackage(address,uint256)":"383f5adf","isOperator(address)":"6d70f7ae","isOperatorFor(bytes4,address)":"ea562a25","nameOfFacet(address)":"e3ff70d6","nameOfPackage(address)":"7ff8bd87","owner()":"8da5cb5b","packagesByFacet(address)":"cb08be22","packagesByInterface(bytes4)":"57c7cde1","packagesByName(string)":"50e4fe75","pendingOwner()":"e30c3978","preConfirmedOwner()":"1af1b0c4","registerFacet(address,string,bytes4[],bytes4[])":"0d20b70a","registerPackage(address,string,bytes4[],address[])":"a73e3131","setDiamondPackageFactory(address)":"1cdca5df","setOperator(address,bool)":"558a7297","setOperatorFor(bytes4,address,bool)":"755dbe7c"},"id":10}