{"abi":[{"type":"constructor","inputs":[],"stateMutability":"nonpayable"},{"type":"function","name":"calcSalt","inputs":[{"name":"pkgArgs","type":"bytes","internalType":"bytes"}],"outputs":[{"name":"salt","type":"bytes32","internalType":"bytes32"}],"stateMutability":"pure"},{"type":"function","name":"diamondConfig","inputs":[],"outputs":[{"name":"config","type":"tuple","internalType":"struct IDiamondFactoryPackage.DiamondConfig","components":[{"name":"facetCuts","type":"tuple[]","internalType":"struct IDiamond.FacetCut[]","components":[{"name":"facetAddress","type":"address","internalType":"address"},{"name":"action","type":"uint8","internalType":"enum IDiamond.FacetCutAction"},{"name":"functionSelectors","type":"bytes4[]","internalType":"bytes4[]"}]},{"name":"interfaces","type":"bytes4[]","internalType":"bytes4[]"}]}],"stateMutability":"view"},{"type":"function","name":"facetAddresses","inputs":[],"outputs":[{"name":"facetAddresses_","type":"address[]","internalType":"address[]"}],"stateMutability":"view"},{"type":"function","name":"facetCuts","inputs":[],"outputs":[{"name":"facetCuts_","type":"tuple[]","internalType":"struct IDiamond.FacetCut[]","components":[{"name":"facetAddress","type":"address","internalType":"address"},{"name":"action","type":"uint8","internalType":"enum IDiamond.FacetCutAction"},{"name":"functionSelectors","type":"bytes4[]","internalType":"bytes4[]"}]}],"stateMutability":"view"},{"type":"function","name":"facetFuncs","inputs":[],"outputs":[{"name":"funcs","type":"bytes4[]","internalType":"bytes4[]"}],"stateMutability":"pure"},{"type":"function","name":"facetInterfaces","inputs":[],"outputs":[{"name":"interfaces","type":"bytes4[]","internalType":"bytes4[]"}],"stateMutability":"pure"},{"type":"function","name":"facetMetadata","inputs":[],"outputs":[{"name":"name","type":"string","internalType":"string"},{"name":"interfaces","type":"bytes4[]","internalType":"bytes4[]"},{"name":"functions","type":"bytes4[]","internalType":"bytes4[]"}],"stateMutability":"pure"},{"type":"function","name":"facetName","inputs":[],"outputs":[{"name":"name","type":"string","internalType":"string"}],"stateMutability":"pure"},{"type":"function","name":"getMessage","inputs":[],"outputs":[{"name":"","type":"string","internalType":"string"}],"stateMutability":"view"},{"type":"function","name":"initAccount","inputs":[{"name":"initArgs","type":"bytes","internalType":"bytes"}],"outputs":[],"stateMutability":"nonpayable"},{"type":"function","name":"packageMetadata","inputs":[],"outputs":[{"name":"name_","type":"string","internalType":"string"},{"name":"interfaces","type":"bytes4[]","internalType":"bytes4[]"},{"name":"facets","type":"address[]","internalType":"address[]"}],"stateMutability":"view"},{"type":"function","name":"packageName","inputs":[],"outputs":[{"name":"name_","type":"string","internalType":"string"}],"stateMutability":"pure"},{"type":"function","name":"postDeploy","inputs":[{"name":"","type":"address","internalType":"address"}],"outputs":[{"name":"","type":"bool","internalType":"bool"}],"stateMutability":"nonpayable"},{"type":"function","name":"processArgs","inputs":[{"name":"pkgArgs","type":"bytes","internalType":"bytes"}],"outputs":[{"name":"processedPkgArgs","type":"bytes","internalType":"bytes"}],"stateMutability":"pure"},{"type":"function","name":"setMessage","inputs":[{"name":"message","type":"string","internalType":"string"}],"outputs":[{"name":"","type":"bool","internalType":"bool"}],"stateMutability":"nonpayable"},{"type":"function","name":"updatePkg","inputs":[{"name":"","type":"address","internalType":"address"},{"name":"","type":"bytes","internalType":"bytes"}],"outputs":[{"name":"","type":"bool","internalType":"bool"}],"stateMutability":"nonpayable"},{"type":"event","name":"NewMessage","inputs":[{"name":"oldMessage","type":"string","indexed":false,"internalType":"string"},{"name":"newMessage","type":"string","indexed":false,"internalType":"string"}],"anonymous":false}],"bytecode":{"object":"0x60a0806040523460295730608052610d5e908161002e8239608051818181610a330152610b170152f35b5f80fdfe60806040526004361015610011575f80fd5b5f3560e01c80632ea80826146107bf578063368b8772146105d657806352ef6b2c146105a7578063574a4cff146105785780635b6f4d011461055d57806365d375b3146104dd57806370068fcf146104c4578063870d4838146102c957806387c3adb314610296578063a4b3ad3514610267578063a908923514610222578063abc8b34614610207578063ce6d41de146101d8578063d82be56e14610172578063f10d7a75146101335763f45469e7146100c9575f80fd5b3461012f575f36600319011261012f5761010f6100e4610b84565b61012b6100ef610bc9565b61011d6100fa610a17565b916040519586956060875260608701906108fd565b9085820360208701526107da565b9083820360408501526108c1565b0390f35b5f80fd5b3461012f575f36600319011261012f5761010f61014e610aae565b61012b610159610bc9565b6101646100fa610a67565b9083820360408501526107da565b3461012f57602036600319011261012f576004356001600160401b03811161012f576101a460209136906004016109d8565b6040516101cd816101bf8582019486865260408301906108fd565b03601f19810183528261084d565b519020604051908152f35b3461012f575f36600319011261012f5761012b6101f3610c2c565b6040519182916020835260208301906108fd565b3461012f575f36600319011261012f5761012b6101f3610b84565b3461012f57604036600319011261012f5761023b6109c2565b506024356001600160401b03811161012f5761025b9036906004016109d8565b50602060405160018152f35b3461012f575f36600319011261012f5761012b610282610ad8565b604051918291602083526020830190610921565b3461012f57602036600319011261012f576004356001600160401b03811161012f576101f361012b9136906004016109d8565b3461012f57602036600319011261012f576004356001600160401b03811161012f576102f99036906004016109d8565b805181019060208181840193031261012f576020810151906001600160401b03821161012f570181603f8201121561012f5760208101519061033a82610870565b92610348604051948561084d565b8284526040828401011161012f57815f926040602093018386015e8301015280516001600160401b0381116104b05761038e5f516020610ce95f395f51905f5254610bf4565b601f8111610454575b50602091601f82116001146103df579181925f926103d4575b50505f19600383901b1c191660019190911b175f516020610ce95f395f51905f5255005b0151905082806103b0565b601f198216925f516020610ce95f395f51905f525f52805f20915f5b85811061043c57508360019510610424575b505050811b015f516020610ce95f395f51905f5255005b01515f1960f88460031b161c1916905582808061040d565b919260206001819286850151815501940192016103fb565b5f516020610ce95f395f51905f525f525f516020610d095f395f51905f52601f830160051c810191602084106104a6575b601f0160051c01905b81811061049b5750610397565b5f815560010161048e565b9091508190610485565b634e487b7160e01b5f52604160045260245ffd5b3461012f57602036600319011261012f5761025b6109c2565b3461012f575f36600319011261012f57606060206040516104fd81610817565b828152015261054a61050d610ad8565b61012b610518610bc9565b6040519261052584610817565b8352602083019081526040519384936020855251604060208601526060850190610921565b9051838203601f190160408501526107da565b3461012f575f36600319011261012f5761012b6101f3610aae565b3461012f575f36600319011261012f5761012b610593610a67565b6040519182916020835260208301906107da565b3461012f575f36600319011261012f5761012b6105c2610a17565b6040519182916020835260208301906108c1565b3461012f57602036600319011261012f576004356001600160401b03811161012f573660238201121561012f5761061790369060248160040135910161088b565b7f33f9897216838d3426adfbb9dcb455323ae7e170a584880d835bc7327ad6137d61065a610643610c2c565b6106686040519283926040845260408401906108fd565b8281036020840152856108fd565b0390a180516001600160401b0381116104b0576106925f516020610ce95f395f51905f5254610bf4565b601f8111610763575b50602091601f82116001146106eb579181925f926106e0575b50508160011b915f199060031b1c1916175f516020610ce95f395f51905f52555b602060405160018152f35b0151905082806106b4565b601f198216925f516020610ce95f395f51905f525f52805f20915f5b85811061074b57508360019510610733575b505050811b015f516020610ce95f395f51905f52556106d5565b01515f1960f88460031b161c19169055828080610719565b91926020600181928685015181550194019201610707565b5f516020610ce95f395f51905f525f525f516020610d095f395f51905f52601f830160051c810191602084106107b5575b601f0160051c01905b8181106107aa575061069b565b5f815560010161079d565b9091508190610794565b3461012f575f36600319011261012f5761012b610593610bc9565b90602080835192838152019201905f5b8181106107f75750505090565b82516001600160e01b0319168452602093840193909201916001016107ea565b604081019081106001600160401b038211176104b057604052565b606081019081106001600160401b038211176104b057604052565b601f909101601f19168101906001600160401b038211908210176104b057604052565b6001600160401b0381116104b057601f01601f191660200190565b92919261089782610870565b916108a5604051938461084d565b82948184528183011161012f578281602093845f960137010152565b90602080835192838152019201905f5b8181106108de5750505090565b82516001600160a01b03168452602093840193909201916001016108d1565b805180835260209291819084018484015e5f828201840152601f01601f1916010190565b9080602083519182815201906020808260051b8501019401925f905b82821061094c57505050505090565b808603601f19018452845180516001600160a01b031687526020810151959694959394929391929060038310156109ae576109a1826060604060209594600197878097015201519181604082015201906107da565b970195019392019061093d565b634e487b7160e01b5f52602160045260245ffd5b600435906001600160a01b038216820361012f57565b9080601f8301121561012f578160206109f39335910161088b565b90565b805115610a035760200190565b634e487b7160e01b5f52603260045260245ffd5b60405190610a2660408361084d565b60018252602036818401377f00000000000000000000000000000000000000000000000000000000000000006001600160a01b0316610a64836109f6565b52565b60405190610a7660608361084d565b60028252604036602084013781636736a0ef60e11b610a94826109f6565b52805160011015610a0357604001631b45c3b960e11b9052565b60405190610abd60408361084d565b600c82526b11dc99595d195c919858d95d60a21b6020830152565b6040908151610ae7838261084d565b60018152601f1983015f5b818110610b5c57505080610b599193610b09610a67565b815191610b1583610832565b7f00000000000000000000000000000000000000000000000000000000000000006001600160a01b031683525f6020840152820152610b53826109f6565b526109f6565b50565b6020908551610b6a81610832565b5f81525f8382015260608782015282828601015201610af2565b60405190610b9360608361084d565b60218252606560f81b6040837f4772656574657246616365744469616d6f6e64466163746f72795061636b616760208201520152565b60405190610bd860408361084d565b6001825260203681840137633e39b1ab60e21b610a64836109f6565b90600182811c92168015610c22575b6020831014610c0e57565b634e487b7160e01b5f52602260045260245ffd5b91607f1691610c03565b604051905f825f516020610ce95f395f51905f525491610c4b83610bf4565b8083529260018116908115610cc95750600114610c71575b610c6f9250038361084d565b565b505f516020610ce95f395f51905f525f90815290915f516020610d095f395f51905f525b818310610cad575050906020610c6f92820101610c63565b6020919350806001915483858901015201910190918492610c95565b60209250610c6f94915060ff191682840152151560051b820101610c6356fed32bbaeef0dc4ce0a1707655450e5e93886dfad6f521b6fb7c9b8f3a455fa2650cdf796f053837afc636efaf40b085110f2fb6919a73eb6387627a34a3080789a264697066735822122068a79434ad7830f982e8f0029816df5739a5f877b5636b52f5096af25ae8770964736f6c634300081e0033","linkReferences":{}},"methodIdentifiers":{"calcSalt(bytes)":"d82be56e","diamondConfig()":"65d375b3","facetAddresses()":"52ef6b2c","facetCuts()":"a4b3ad35","facetFuncs()":"574a4cff","facetInterfaces()":"2ea80826","facetMetadata()":"f10d7a75","facetName()":"5b6f4d01","getMessage()":"ce6d41de","initAccount(bytes)":"870d4838","packageMetadata()":"f45469e7","packageName()":"abc8b346","postDeploy(address)":"70068fcf","processArgs(bytes)":"87c3adb3","setMessage(string)":"368b8772","updatePkg(address,bytes)":"a9089235"},"id":41}